:020000041000EA
:1004000000C00E083B0500100D000000990500100B
:1004100000000000000000000000000000000000DC
:100420000000000000000000000000009505001022
:100430000000000000000000950500109505001068
:100440009505001095050010950500109505001004
:1004500095050010950500109505001095050010F4
:1004600095050010950500109505001095050010E4
:1004700095050010950500109505001095050010D4
:100480000448054B10B5834203D0044B002B00D029
:10049000984710BD60040E0860040E0800000000BC
:1004A00006480749091A8B10C90FC91810B5491019
:1004B00003D0044B002B00D0984710BD60040E08F9
:1004C00060040E080000000010B5074C2378002BD4
:1004D00009D1FFF7D5FF054B002B02D0044800E0FF
:1004E00000BF0123237010BD80040E08000000002F
:1004F0008C960010054B10B5002B03D0044905481D
:1005000000E000BFFFF7CCFF10BDC04600000000B8
:1005100084040E088C9600100230800803D001304D
:100520000238FCD1C046C0467047EFF3108072B667
:10053000704780F3108870477047FFF7FDFF72B671
:100540000E4C0F4DAC4209DA21686268A368043B87
:1005500002DBC858D050FAE70C34F3E709490A4ADD
:100560000020521A02DD043A8850FCDC0748084992
:100570000860BFF34F8F06F0EFFFFEE7989600107C
:10058000B096001080040E08E8100E0800000E0857
:1005900008ED00E0FEE7FEE700B5042071460842E2
:1005A00002D0EFF3098002E0EFF30880043006F098
:1005B000B3F8FEE70200093A03000120042A03D938
:1005C000203B18004342584170470000F0B5002717
:1005D00015003C008BB00493109B03901B0CDBB206
:1005E0000793109B01911B0ADBB20893109B0290AA
:1005F000DBB20993029B069301330293069B1E789C
:10060000002E08D0019B002B23DB039A029B9B1A30
:10061000019A93421DDD109BDBB20593002B78D02D
:100620009E4200D0BCE0019B002B06DB039A029B9C
:100630009B1A019A934200DDB2E0069B029A0233B4
:100640001678022F00D16EE061DC62D00124644292
:1006500066E03000FFF7AEFF0028CBD1099BB34224
:10066000D9D0514B31001800059308F05BFB031EF5
:1006700007D1079BB3420BD0089BB342E6D1059B41
:100680003F33032FB6D8380007F054F80510223452
:10069000059B3E33F5E7002D06D0049A9442D5D24F
:1006A000414A9B1A9B002B550127A3E7621C002D92
:1006B0000BD004998A42C9D23B4829191B1A285DDC
:1006C0001E1130431B0108704B701400022791E784
:1006D000621C002D0BD004998A42B7D232482919E6
:1006E0001B1A285D9E1030439B0108704B7014004C
:1006F00003277FE7002D07D0049A9442A6D22A4A06
:100700009B1A2A5D13432B550027013472E7032FF0
:1007100024D0049B9C4299D2002D01D000232B555C
:1007200020000BB0F0BD1F00002E00D18EE7019B12
:10073000002B24DB039B019AFB1A93421FDD059BD0
:10074000B34200D082E7019B002B05DD039B019A99
:10075000FB1A934200DD79E73E787B1C1F00002ED8
:1007600007D0019B002B12DB039B019AFB1A9342DB
:100770000DDD002DCDD02B5D002BCAD066E73000FB
:10078000FFF718FF0028DAD03E780137CCE73000B9
:10079000FFF710FF002800D158E73E780137DEE769
:1007A000002FB6D052E7C046289000100023010069
:1007B000180010B5CA5C1400303C092C09D8303838
:1007C00010185A1C032B03D013000001042AF1D186
:1007D00010BD1400413C052C01D83738F0E7140057
:1007E000613C052C01D85738EAE70020F0E700000B
:1007F000F0B50B7885B002900392222B11D14F1CDB
:100800003E0000233278222A00D1AEE0002A0AD02E
:100810005C2A04D17278002A05D0013301360136F2
:10082000F0E7039B1960002010E03B785C2B0FD0B1
:100830002B7001370135B742F7D30023029A2B7092
:100840000833D3601300019A701C1A6105B0F0BD23
:10085000787875280AD86D280FD862281AD015D84C
:100860002F2823D05C2821D022281FD0039B019859
:100870001F60444B1B689847D5E76E380728F5D8AA
:1008800006F04EFF0EF4F4F410F412166628EDD1C3
:100890000C2300E008232B7002230135FF18CAE760
:1008A0000A23F8E70D23F6E70923F4E72870F3E7B6
:1008B000F31B052BDADDB81CFFF778FF8022324BE3
:1008C0000400C318D2009342D0D30028CED02F49C1
:1008D0004318934224D2BB1DF31A052BC6DDBB7906
:1008E0005C2BC3D1FB79752BC0D138000830FFF7E2
:1008F0005DFF8022244BD200C3189342B6D2244B12
:10090000A4021C4080238005800D5B020443E41890
:100910000C233F221440BF3A1443EC70843212E09F
:100920007F280DD980231B01984216D380235B02B8
:1009300098420AD388235B03984297D20623E8E7BC
:10094000062301222870AD18A8E73F231C40BF3BB7
:100950001C430322AC708633F5E73F231C40BF3BAA
:100960001C4302226C708633EDE70422701AD31AFE
:10097000C018084B1B689847051E019000D05AE725
:1009800051E7C04680000E080024FFFF0028FFFF4B
:1009900000FC0F0084000E08002803D00378013B00
:1009A0001F2B00D970470130F6E70000064B10B549
:1009B00028201B689847041E03D02822002108F035
:1009C000ADFA200010BDC04684000E08084A002879
:1009D00003D1084B1360084B07E00368002B00D1DC
:1009E000044B13604368002BF5D0044A1360704732
:1009F00084000E08558D0010698D001080000E08CF
:100A0000F8B5802604007600002C00D1F8BDE3681C
:100A10002768104D334206D1A068002812D1206902
:100A20002B68002814D18022E3689200134204D17D
:100A3000206A002801D02B68984720002B6898472F
:100A40003C00E1E7FFF7DCFFE3683342E7D0EAE789
:100A50009847E8E780000E08F0B505000F00160083
:100A600085B0002901D1002413E004223800614937
:100A700008F020FA002803D10223EB603C1D08E0B7
:100A8000052238005C4908F015FA002804D1E86016
:100A90007C1D200005B0F0BD04223800574908F045
:100AA00009FA002806D101230122EB600023AA6184
:100AB000EB61E3E73B78222B06D1320039002800B6
:100AC000FFF796FE0400E4E72D2B03D01A00303A1E
:100AD000092A0ED800260A22380003A9039608F036
:100AE00003F9039CA742BED00423A861E961EB602F
:100AF000CFE75B2B31D1781CFFF74EFF0378040062
:100B00005D2B22D00027013C00970197FFF74EFF95
:100B1000009B071E68D0002B15D0019B1860436016
:100B2000601CFFF739FF320001003800FFF794FF27
:100B3000FFF732FF041E3BD003782C2BE5D05D2B52
:100B400005D0346034E00090EAE7002300931023DE
:100B5000EB60009B0134AB609BE77B2B48D1781C9A
:100B6000FFF71AFF037804007D2B3AD00027013CE1
:100B700000970197FFF71AFF009B071E34D0002B48
:100B80001AD0019B18604360601CFFF705FF32001C
:100B900001003800FFF72CFEFFF7FEFE002807D00B
:100BA0003B693B6200233B6103783A2B06D03060FF
:100BB0000098FFF725FF56E70090E5E70130FFF7C3
:100BC000EBFE320001003800FFF746FFFFF7E4FEBE
:100BD000041EEDD003782C2BCBD07D2BB1D120235C
:100BE000B6E700230093FAE7002B00D13BE7DFE7ED
:100BF000376038E7679000106C900010729000101A
:100C0000F7B504000E000F1E019200D1144FFFF73C
:100C1000CDFE002305003B6098420DD02000FFF779
:100C2000BBFE3A0001002800FFF716FF041E05D1A5
:100C30002800FFF7E5FE00252800FEBD019B002BE4
:100C40000AD0FFF7A9FE03780400002B04D0280087
:100C5000FFF7D6FE3C60EEE7002EEDD03460EBE708
:100C60009C040E08002210B51100FFF7C9FF10BD4B
:100C7000802233B5450AFFB06D02040029006846A2
:100C8000920008F05DF801236A46E405E40D694628
:100C90002800135501F0CEF97FB036BD10B51839D4
:100CA0000B5C0A180020012B02D01000FFF7E0FFB8
:100CB00010BD0000F0B58DB01D0015AB1B780E0007
:100CC00003930023170005A906AA0593069300F0D5
:100CD00046F9041E4CD12F4B3200009306993B007D
:100CE0000598FFF773FC002851DD0C22210009A8AC
:100CF00008F014F9022008AA07A9FF300794089405
:100D000000F098FF002802D06524644230E02900FA
:100D1000079800F061FE0028F6D1033008AA07A961
:100D2000FF3000F087FF0028EED11299079800F0FD
:100D3000EFFD041E1CD1300009A900F028F9041EA3
:100D400016D112990A9800F03FFD041E10D1290017
:100D5000039A0B9800F03AF9041E06D1139B0998E8
:100D6000002B08D1149B002B0CD10998FFF748FEEB
:100D700020000DB0F0BD139900F008FC0028F1D060
:100D80000400F2E71499099800F0CEFCF8E7142467
:100D9000BBE7C046005F2D00F0B58BB0059310ABEC
:100DA000049204CB0F001B7806920793002309AA34
:100DB00008A906000893099300F0D1F8041E23D176
:100DC000099800F06DF8040007F0C4FF051E21D05B
:100DD000124B02000093099923000898FFF7F6FBD5
:100DE000002814DD079B22000393069B2900029331
:100DF000059B30000193049B00933B00FFF75AFFD3
:100E00000400280007F0B0FF20000BB0F0BD142450
:100E10006442F6E764246442F6E7C046005F2D00B2
:100E200010B504000B48210007F06AFF0023984228
:100E30000DD02100084807F063FF0123002806D0E9
:100E40002100064807F05CFF434258414300180068
:100E500010BDC04677900010809000108890001060
:100E600010B504000B48210007F04AFF0023984208
:100E70000DD02100084807F043FF0123002806D0C9
:100E80002100064807F03CFF434258414300180048
:100E900010BDC0469090001099900010A5900010D1
:100EA000032358438008984304307047F7B50D007A
:100EB000002821D000291FD0C3680860202B1ED134
:100EC000104B8468104F0193002C01D12000FEBD0F
:100ED000266A002E06D03100019807F011FF002885
:100EE00002D16C602468EFE73100380007F008FF9A
:100EF0000028F7D1AC60F5E701204042E7E7022087
:100F0000FBE7C046AA900010B0900010F0B50600B4
:100F10000C00002591B001AF002C02D1200011B0CF
:100F2000F0BD216A002904D0300007F0E9FE002856
:100F3000F4D0A368002B06D00E2D0ED8AA00D451F1
:100F400001351C00E8E72468002CEAD1002DE5D02B
:100F5000013DAB00DB591C68F6E70024DEE7F8B57D
:100F60000D002E21160007F0DDFE041E0CD0471CDC
:100F70002E21380007F0D6FE002805D0001B0138CE
:100F8000306000202F60F8BD16204042FBE770B5AE
:100F9000050000200C00FFF719FD2800FFF762FE96
:100FA000002803D02100FFF781FF70BD05204042DB
:100FB000FBE70200042300200130002901D19A42FE
:100FC00003D95B001D28F7D102307047F0B5C84B3C
:100FD00089B00F00010018000692FFF797FF002864
:100FE00000D18EE283680193029300231E000593D3
:100FF0000493029B002B73D1019BDB68202B00D054
:1010000080E2019DBB4B290018000293FFF77EFF91
:10101000041E00D1F0E08369069ADBB2934200D04F
:10102000EAE02100B448FFF771FF002800D1DDE0BD
:1010300083693B702100B148FFF768FF1423002843
:1010400000D083697B602100AD48FFF75FFF01237B
:10105000002803D0C3685A1E9341DBB22100A9487F
:101060003B72FFF753FF002800D1C2E08369FB60A9
:1010700000232100A4487B76FFF748FF002808D012
:10108000A24B0169180007F03BFE002801D10123A3
:101090007B763B007A7E49331A70002E00D031E215
:1010A000019D29000298FFF731FF002800D1A8E038
:1010B00083693A78DBB29A4200D0A2E029009448D2
:1010C000FFF724FF0123041E029300D1A0E08269F0
:1010D0002F33541E6343FB181A760223029397E0C2
:1010E0008C480299FFF712FF002802D08568002D76
:1010F00003D1029B1B6802937BE729008648FFF718
:1011000005FF00284FD0002403690393834B079306
:10111000079AA3009958039807F0F2FD002800D120
:10112000F3E10134042CF3D100247D4B0793079A9B
:10113000A3009958039807F0E3FD061E05D001347B
:10114000172CF4D10526183C764229007548FFF784
:10115000DDFE002801D08369059329007248FFF75E
:10116000D5FE002804D0C1698069FFF722FF0490F2
:10117000631C18D0049B002B15DDA9226300FB180B
:1011800052009A5C012A04D1220005990E32D20045
:10119000D1515422FF329B5C012B04D10E34049BAD
:1011A000E4003C1963602D68A1E76049039807F0EB
:1011B000A7FD0028F7D129005A48FFF7A7FE00280D
:1011C00006D0A2235B00FB5C012B01D18369BB66C7
:1011D00029005548FFF79AFE0028E4D04623FF3344
:1011E000FB5C012BDFD18369FB66DCE701267642DD
:1011F00020E7FA231B013AE72D68002D00D001E714
:101200004BE72D68002D00D04BE701232C00029303
:10121000002D00D096E029004548FFF777FE002812
:1012200000D0FDE029004348FFF770FE00280ED0F3
:101230000D236343FB182A33FF331B78012B06D1A0
:10124000C2682F33511E8A416343FB185A7029002C
:101250003948FFF75BFE00280ED00D236343FB18CF
:101260002C33FF331B78012B06D1C2682F33511E5C
:101270008A416343FB181A7429003048FFF746FE81
:1012800000280CD00D236343FB182C33FF331B784D
:10129000012B04D12F3363438269FB189A74290010
:1012A0002748FFF733FE002800D1C9E0C368102BA0
:1012B00000D0C5E00D228168380062433530FF3030
:1012C00013008018232262433233FF33063AFB189F
:1012D000FF3A002900D1B3E01E78012E01D18E69BA
:1012E0009E540133834200D1AAE00968F1E7C04669
:1012F00090900010A8910010279100102E910010DE
:1013000036910010419100104D9100105A9100103B
:101310005F91001008910010BD900010E4000E08CD
:1013200088000E08129100101A9100101F910010F1
:101330006B910010B5900010829100108A910010FE
:101340009991001029008348FFF7E0FD002800D1A3
:1013500061E78668002E00D15DE731007E48FFF727
:10136000D5FD00282DD003697C491800039307F0B0
:10137000C7FC002827D131007948FFF7C7FD0028B6
:101380000CD00D236343FB182E33FF331B78012B46
:1013900004D12F3363438269FB18DA61310071484D
:1013A000FFF7B4FD00280CD00D236343FB182F3347
:1013B000FF331B78012B04D12F3363438269FB1861
:1013C0001A623668C6E76849039807F099FC002856
:1013D000F7D131006248FFF799FD00280CD00D23AA
:1013E0006343FB183033FF331B78012B04D12F33B9
:1013F00063438269FB185A6231005A48FFF786FD41
:101400000028DED00D236343FB183033FF331B78F5
:10141000012BD6D12F3363438269FB189A62D0E740
:101420000D236343FB182D33FF331B78012B00D0B2
:10143000F8E62F3363438269FB18D2B25A61F1E6B2
:1014400029004A48FFF762FD031E01D08369DBB221
:1014500030226243BA18937029004548FFF756FDC1
:101460000123002805D0C269836913435A1E9341A2
:10147000DBB230226243BA185374002C1DD129000C
:101480003C48FFF743FD1423002800D083697B63A9
:1014900029003948FFF73AFD031E03D0C3685A1EDE
:1014A0009341DBB23A003832290034481370FFF719
:1014B0002DFD00281ED08369FB63029B012B20D0E9
:1014C000019D29002E48FFF721FD002815D08269D3
:1014D000D3B2022B11D13026541E6643BA1929000B
:1014E00028481376FFF712FD002801D08369F355D1
:1014F0000123F3E5FA231B01DEE72D68002DE0D17F
:10150000F6E70026300009B0F0BD1F49039807F048
:10151000F7FB002800D048E629001148FFF7F6FC49
:10152000002806D0A1235B00FB5C012B01D183695D
:101530003B6629000B48FFF7E9FC002800D132E6A2
:101540004423FF33FB5C012B00D02CE683697B66D0
:1015500029E6C04608910010BD900010759100105A
:10156000129100101A9100107A910010A3910010AE
:10157000AB9100102E910010369100104191001097
:101580005F910010A8910010B691001070B5514BFA
:10159000BAB00400029308000B1D04934E4B0C30AC
:1015A000059301230A904D480A000B90C8180D902E
:1015B0004B4808320E9008001030109049480792AE
:1015C00011900800143013904748484A14900800BE
:1015D00018301690464800251790080008920222FD
:1015E0001C300191069309920C9312931593039565
:1015F0000F95189319903F481B931A9008002030BC
:101600001C903D481E921D90080024301F903B48BE
:10161000219220900800283022903948249323906A
:1016200008002C302590374827932690881828905A
:10163000354830922990C81C2B9034482A952C901C
:10164000080030302E9032482D952F90080034300D
:10165000319033920A00383234922E4A2E48359215
:101660003C312E4A329037912D48210036933892E2
:101670003993FFF74BFC0600A8421ED08368AB42AB
:101680001BD001AC31006068FFF740FC002810D08F
:10169000C268042A0DD1A268012A11D0022A13D0EF
:1016A000002A06D18269C369216813435A1E9341F7
:1016B0000B7001350C34132DE4D100203AB070BD0D
:1016C000226883691360F4E783691649DB012268A5
:1016D0005B18F7E7C7910010D4910010EC9100104F
:1016E000F9910010039200100D920010E19100108A
:1016F000159200101C9200102A92001034920010D3
:101700003F9200104B92001058920010629200100D
:101710006F92001084920010799200109092001045
:101720009D920010000031400200F0B5224B87B0BE
:101730000E0003A931CB31C111002048FFF7E6FBB1
:10174000051E0BD08368002B08D029001C48FFF72A
:10175000DDFB002304000093002C02D1002007B021
:10176000F0BD184BA4681800A16801933700FFF77B
:10177000CDFB002802D0C368042B0DD0009B022BA8
:10178000EAD00133009303AA9B002900D058FFF749
:10179000BDFB84360400DFE78369321D3B600368CC
:1017A00024689B6921007B60D36F01980133D36764
:1017B000FFF7ACFB0837DCE714940010A49200108C
:1017C000B0920010B6920010174B70B50C000100DB
:1017D0001800FFF79BFB051E24D029001348FFF7D4
:1017E00095FB002806D0E378012B03D10069FFF7B1
:1017F00017FB207029000E48FFF788FB002806D051
:101800002379012B03D10069FFF72AFB60702900BF
:101810000848FFF77BFB002804D06379012B01D136
:101820008369A370002070BDBF920010C2920010A7
:10183000CD920010D592001070B504000D0086B056
:101840000021142201A807F069FB29002000FFF7FE
:101850005DFB0400002C18D021001C48FFF756FB4C
:101860000028F7D00569002D0AD0194E2900300054
:1018700007F046FA00280BD1310001A807F04AFA18
:10188000210001A8FFF742FB0400200006B070BD54
:10189000104E2900300007F033FA0028ECD0290060
:1018A0000D4807F02DFA0028E6D00C4E2900300034
:1018B00007F026FA0028DFD02900094807F020FAAF
:1018C0000028DDD121000748C1E7C046BD900010C7
:1018D000E5900010CE900010D5900010DD90001023
:1018E000C2900010C890001010B5FFF70FFB012444
:1018F000002809D08168002906D00448FFF706FBBC
:10190000002801D0C468E4B2200010BDD9920010B4
:10191000F7B5040000200D00FFF758F82000FFF78E
:10192000A1F9071E4DD039002748FFF7EFFA041E32
:1019300006D1012676423800FFF762F83000FEBD7E
:10194000224E01003000FFF777FF210000903000A9
:10195000FFF7CAFF009B0600002B2CD01869FFF789
:101960005FFAEE7000262870194B210018000193D1
:10197000FFF762FF210000900198FFF7B5FF009B81
:101980000190002B1AD01869FFF76AFA019B687062
:101990002B71104B210018000193FFF74DFF210020
:1019A00000900198FFF7A0FF009B002BC1D09B691E
:1019B0006871AB70BFE701267642D5E70126764213
:1019C000E7E705267642B9E7BF920010C292001001
:1019D000CD920010D5920010F0B5050085B0002022
:1019E0000C00FEF7F3FF2800FFF73CF9031E0190FF
:1019F00000D108E119008648FFF788FA051E00D1DA
:101A0000FDE0844F01003800FFF716FF29000600B3
:101A10003800FFF769FF002E00D1D4E09422B369AB
:101A20005200DBB22370A0542200303213703623F0
:101A3000FF33E0540023784F290038000093FFF76C
:101A4000FBFE290006003800FFF74EFF002E00D1F4
:101A5000BCE0F3685A1E93412A22DBB2FF32637066
:101A6000A0542200313213709B235B00E0546B4F73
:101A700029003800FFF7E0FE290006003800FFF7D4
:101A800033FF002E00D1A5E0F3685A1E93412C22AB
:101A9000DBB2FF322374A0542200403213709C2327
:101AA0005B00E0545E4F29003800FFF7C5FE2900B7
:101AB00006003800FFF718FF002E00D18EE09622B6
:101AC000B3695200DBB26361A05463643A23FF330D
:101AD000E054544E29003000FFF7AEFE2900070005
:101AE0003000FFF701FF0500002F00D17AE0200051
:101AF000BE690322F6B231002C3007F00FFA200045
:101B0000323003222900FF3007F008FA20000322B8
:101B100031005C3007F002FA20003F300322290038
:101B2000FF3007F0FBF940480199FFF7EFF9060095
:101B3000002F64D02E230122FF33E2540220230021
:101B400098213A4FFE33FF30490018866254988737
:101B5000D88731003800FFF76FFE310005003800EC
:101B6000FFF7C2FE0390002D40D0AB690293304FC7
:101B700031003800FFF760FE310005003800FFF744
:101B8000B3FE002D37D0AD6923002100220053336E
:101B900081317032FF33FF31029E55601660039E23
:101BA00058701E70023308328B42F5D1A1230222F5
:101BB0005B00FF32E25202330198E252FEF720FF4F
:101BC000009805B0F0BD01235B4234E701235B427E
:101BD00000934CE701235B42009363E701235B42E0
:101BE000009376E701235B4200939CE701235B426D
:101BF00002950093BBE701235B420093C4E70123F6
:101C00005B420093D2E705235B420093D8E7C046CE
:101C100090900010A8910010B590001082910010D3
:101C20006B91001099910010089100101291001012
:101C30001A910010DC23F0B59B0585B000930023BA
:101C400002AD019502901848184C06686B60306A26
:101C50000768002F07DBA34203D10120404205B0F3
:101C6000F0BD0133F4E7A342F7D06B46C360012314
:101C7000BC3683603368C01800230668002E03DA80
:101C8000A342EAD00133F8E7A342E6D0A0230098AC
:101C90001B06984201D00098E1E7029B00201360E8
:101CA0006B680B60DBE7C046A8040E08983A00009A
:101CB0000122F0B50024184B0668196832400B6AFF
:101CC000BC310D6815495D191F68002F06DB8C4279
:101CD00002D101204042F0BD0134F5E78C42F8D03A
:101CE000002A00D106000120DE60986000202C68E8
:101CF000002C03DA8842ECD00130F8E78842E8D0C3
:101D0000DB68002A00D11B68A02200201206934243
:101D1000E1D01800DFE7C046A8040E08983A00009A
:101D20000A4B37B51B780500013B0024012B05D871
:101D3000074B01A80193FFF7BBFF0400002D02D061
:101D4000280004F095FC20003EBDC046D40D0E08CE
:101D50000101013A07B5034B01A80193FFF7A8FF62
:101D60000EBDC0460101003210B5FFF7F3FF002899
:101D700001D107F051F910BDF8B5040008001500B5
:101D8000FFF7CEFF1D4B1B68002B20DA80261C4B73
:101D90001C4FB600BB511C4B1B68190098311A68C8
:101DA000096852181068194908401949014311601F
:101DB0001A00903212681B689B1810221968114291
:101DC000FCD0012004F054FCBC51FFF7CDFF002DE6
:101DD0000CD005F04BFBC02201230E49520088585D
:101DE00003438B5005F07EFB05F028FB200005F037
:101DF00071FC002004F0BCFFFBE7C0460001264058
:101E00000040001600002040A8040E08FCFF00005F
:101E10000300FA0500002640C0220123044910B542
:101E20005200885803438B5005F05CFB10BDC04640
:101E300000002640F8B5294B421E05009A4249D8B9
:101E4000274B1A78002A45D10124264F1C703B7875
:101E5000254E002B07D1FFF7DFFFE122D200B35858
:101E6000A343B3503C70C02201215200B358002458
:101E70008B43B3501D4B1D801D4B1A005988A9423E
:101E800022D8A300D35A9D4200D21D00194B200036
:101E90001C7005F00FFBC22328005B00F65806F00B
:101EA000D1FC154A154B05F027FE05F03BFD11222C
:101EB0000123121B93408019C01A80B205F0E8FA82
:101EC000FFF7AAFF0020F8BD013404330D2CD5D153
:101ED000013CDBE701204042F5E7C0466F170000F8
:101EE000A4040E08A5040E0800002640A2040E0853
:101EF00020940010A0040E0833DFC14F1C409F3F08
:101F0000C0220120044952008B5883438B50002289
:101F1000024B1A707047C04600002640A4040E0809
:101F2000C0220120024952008B5883438B507047D6
:101F300000002640014B18607047C046A8040E08F8
:101F4000044B1B681A00BA3212881B6A5043C0182F
:101F50007047C046A8040E08A02300B51B0698428F
:101F600026D015D8802825D00AD8102824D040287B
:101F700024D000280BD0154809E0A420C00306E0B7
:101F80008022134B520090421CD09842F3D100BDE6
:101F9000104B984218D0104BC0180428EBD805F00D
:101FA000BFFBECEA0F0305000C48F0E70C48EEE736
:101FB0000020ECE70B48EAE70B48E8E70B48E6E7C8
:101FC0000B48E4E71800E2E7A020D7E7FF00520043
:101FD00006005200090000A0FFFFFF0F02005200A0
:101FE00003005200050052000100500002005000A2
:101FF0000100520010B50020FFF7A2FF0A4B1C6839
:102000002300BC331B68C0180368002B0ADB074B96
:102010001868FFF7A1FF012263689A609A68002A96
:10202000FCD110BD0248FCE7A8040E08AC040E0861
:1020300002005000C30570B505000C00DE0D002B3A
:1020400020D100291ED005F0E3FA0F4B0F4A1A6089
:102050005E609D60DC600E4B1B685233197800296E
:102060000BD004F06EFAFA21890005F081FB010023
:10207000084805F07DFB084BC1188020400006F0A1
:10208000BBFF70BD0548FCE7AC040E08000100056D
:10209000A8040E08C0EA21014826000006005200EC
:1020A0000E4B10B51C68A369C31ADB0960691B01DC
:1020B0001B181F200240032907D8C90088408A4006
:1020C0001C68844322431A6010BD0439C90088404B
:1020D0008A405C68844322435A60F5E7A8040E08EE
:1020E000F8B51E0006AB15001A7807000C00FFF7C4
:1020F000D7FF01221100A1403B6816408B430F21FE
:102100000800A640A400A0400D40A5401E43054B7A
:102110003E601B6881331A78BA18136883431D43E5
:102120001560F8BDA8040E08064B1B68BC331B687D
:10213000C3181B68002B03DA89B241600020704786
:102140000148FCE7A8040E0801008A000368002B80
:1021500004DA89B2C2608160002070470048FCE761
:1021600001008A00064B1B68BC331B68C3181B6840
:10217000002B03DAC36800200B6070470148FCE7BE
:10218000A8040E0801008A00024B1A68002A00D138
:1021900018607047C0040E08F0B52C24154E444357
:1021A00030681F000019FF241E0A26402740124CE9
:1021B0001B0C256807602C6A46608360BA352D8841
:1021C0006F433F190761370080377F01E7190B4DD7
:1021D00076014761A4191F043B436419236000235F
:1021E0008361059BC2610162002B01D01B88838142
:1021F000F0BDC046C0040E08A8040E080810000078
:10220000F0B50400236987B0026841680393A368AE
:1022100004AD1732C0682B806A80039BA26A0591C7
:102220000095E16A266A676AFFF7B6FF00213B0066
:102230000A0030000091FFF7AFFF2800216B04F087
:10224000CDF90022AB5E002B06DB1F2213401E3AA5
:102250009A401300014A136007B0F0BD00E100E0AE
:10226000F0B585B003931B4B16001C682C23584314
:102270004B4320180769E418002F27D0A569002DCB
:1022800026D13B68002B23DA134B1B6834331B78B1
:102290000193436801996068029305F0EFFA012207
:1022A0008A40336812049BB2134333600123FE60FB
:1022B000A361039B01996362029805F0DFFA012391
:1022C0008B409BB2BB60280005B0F0BD034DFAE720
:1022D000034DF8E7C0040E08A8040E0804028A00A3
:1022E00007028A0073B5002642690400D56801968A
:1022F0002B0CB34221D01B0413601368194B0069E7
:102300001B68BC331B68C3181B68B34215DA01A9EC
:10231000FFF728FFB0420CD10198E26903681E0C58
:10232000DBB29A4205D9226A9B009B58002B00D051
:10233000984731002069FFF7F7FEADB2002D09D0B4
:1023400063691D6000251B68636AAB4205D098472E
:102350006562A56163691B6873BDA36A002BF8D031
:102360009847F6E7A8040E082C2310B54343034A08
:102370001068C018FFF7B6FF10BDC046C0040E08B5
:102380001A4B70B51A680C00130033331B78834264
:102390002AD9002928D00D681F212B000B400D429F
:1023A00022D11100BA310988126A48431900104D30
:1023B0008018286022685209934210D30021FFF749
:1023C000B3FE002122002868FFF7C0FE011E04D1E1
:1023D0002868FFF7A9FE002800D0064870BD626893
:1023E0009E00B1500133E5E70348F7E7A8040E0863
:1023F000C4040E0801018A0003018A000B0010B515
:10240000002A0DD1002914D10B4A0C4C11680A0086
:10241000BA321288096A424352182260180010BD6D
:10242000002906D006490B604A60FFF7A9FF0300A8
:10243000F4E7044BF2E7C046A8040E08C4040E08F3
:102440000400000803018A00F7B51B4F04003B6835
:102450000E00002B2BD0DB681A68824229D9002598
:102460005B680193A94202D1FEF75FF80500386866
:102470000368002B19DA1F23012223409A406409C4
:10248000019BA4001C1921680A420CD091432160D1
:1024900000240021FFF748FE002E02D12800FEF79D
:1024A00048F82000FEBD054CF3E7054CF4E7034C6B
:1024B000F7E7044CF5E7C046C4040E0802018800A3
:1024C0000301880004018A000C4B1B68002B11D00B
:1024D000DB681A6882420FD959681F2342091840E5
:1024E0001E3B8340920050581840431E9841044BB5
:1024F000C01870470348FCE70348FAE7C4040E0815
:10250000000188000201880004018A0070B596214C
:10251000002004F019F90021080003F055F94442A5
:1025200044412D4B64421C402C4B05000020E41814
:1025300003F0A8F8012003F081F8002002F05AFF10
:1025400005F066F8264E33683F331B78002B03D026
:10255000012003F03BFD0500002D00D0214C336825
:102560003F331B78012B03D9022003F02FFD050018
:10257000002D00D01C4C0021012003F065FB002839
:1025800000D01A4C002003F015F9051E0ED103F0FF
:1025900091FB1223FF33984208D10121280003F058
:1025A000E1F8002800D00D4C05F032F803F0E4FB10
:1025B000002800D00E4C0021080003F045FB002845
:1025C00000D00C4C0021080003F0CCF8002800D00B
:1025D000024C200070BDC046F1F0E5FE0F0F1A015D
:1025E000A8040E082F0F1A012E0F1A014E0F1A0100
:1025F0003F0F1A014F0F1A01F0B5464BC6000029D4
:1026000000D17AE0072A00D977E00D009C19230059
:102610005435196004310833A942FAD1012393409B
:102620003D49636089194B603C49032589194B601A
:102630003B49384F89194B603A4989194B603A49EF
:1026400089194B60394989194B60394989194B609F
:10265000384989194B6051000E003749B5400C6864
:102660009200210080310978023189080918C900D7
:10267000C9194D600F25210095408131097802313B
:1026800089080918C900C9194D6035001035AC46D4
:1026900021006646032582310978B5400231890858
:1026A0000918C900C9194B602100833109782B43EF
:1026B000023189080918C900C9194B60FE23012598
:1026C0009B001A40511C8D40290001258434237839
:1026D000032602339B081B18901C854029430125C3
:1026E00095400D43D11C8E40072105329140DB00FF
:1026F0002E43DB190E435E60F0BD00220121100065
:102700009B1949420132186059600833152AF9D1E2
:10271000F2E7C046CC040E08D4040E08DC040E0810
:10272000E4040E08EC040E08F4040E08FC040E0881
:1027300004050E080C050E08A8040E08C30001309D
:1027400030B580B2124CC0001B190019002901D00D
:10275000072A06D901220021524219605A6006C098
:1027600030BD0C4C2468A5696469491BC90909017D
:1027700009191960043101601F21032A03D8D2000E
:1027800091405960ECE7043AD20091404160E7E79C
:10279000CC040E08A8040E08F7B500250700008831
:1027A0002C000138082800D90DE104F0D7FF3F00C4
:1027B000090025004C009E00E700DB024E005A0095
:1027C0007D88B649E8000B185B68FA681C00144065
:1027D00013420ED15E1C0CD0922D0AD8415800290C
:1027E00007D0BD6808682B4303401A430A607C6029
:1027F000F7BDAB4B7B60FBE77888A84BC20099180C
:1028000049684C1CF5D09228F3D8D0580028F0D055
:10281000BB6802680B4203D01C0054402142E8D13F
:102820000A401343036000237B60E1E77B88922B1F
:10283000DFD89A4ADB009B58002BDAD01B68BB60BC
:1028400000237B60D4E77D60D2E7BB68022B05D113
:10285000FB68282B02D100237B60C9E7914B7B608A
:10286000C6E7BB68002B00D10FE2FA68052A00D941
:102870000BE200227A608C4A1268002A05D11A60A5
:10288000DA609A615A621A63B2E71178002924D09B
:1028900091681960D168596084499960517800291C
:1028A0001DD0116AD960916A196181495961516AD3
:1028B0009961D16AD9617F4919629178002911D053
:1028C000116B5962916B99627B49D962516BD26BE2
:1028D00019635A63794A9A638AE71960DEE7D96017
:1028E0009961EAE75962196382E7B968002900D162
:1028F000CBE1734C734D2378F02201930023280021
:102900007B6006F01DFA03F0E7FE002810D0FFF709
:10291000FDFD78607B68002B00D069E728002370FC
:1029200001F09CFD7860002825D0019B23705FE7B3
:102930002378002BEED1EB78002BE8D0EB79002B3D
:10294000E5D02B0055331B78009303F0B3FE061E31
:1029500002D05D4E7E60DAE703F018F8002805D15A
:1029600003F000F8009803F03BF8F3E703F018F8E1
:102970000028F5D0EDE70123237039E77888322865
:102980001DD82B281FD92C3806281CD804F0E6FEA9
:102990005200D2001B00CC01D1011B00C4010B2846
:1029A00011D804F0DBFE13003100100010001000FD
:1029B000100028012D0132013B0145018E016638CE
:1029C00083B20B2BEBD9364B7B6011E73F4BBA68D8
:1029D0005968002A0FD13E4A11401B220A435A600F
:1029E00059683C4A11435960596811435960596804
:1029F0000A435A602FE7E8223748920101400A4310
:102A00005A605A680240F4E7344B1A681300BA332C
:102A1000198807234B43126A9B181A68002AFCDAAC
:102A20008022D96852050A43DA6000225A605B6846
:102A30007A60DDE600242A4BB1251C800093294BE7
:102A4000802601931C8003F085F9ED00B60500286F
:102A500017D0200003F02EF9022862D1002C45D1B6
:102A60001A4A214953590B40334353510021200046
:102A700003F0EAF80123A340009A12881343009A56
:102A80001380164B01341B683F331B789C4200D9DE
:102A9000E1E6200003F086FAD9E7C046CC040E0830
:102AA000FF0F1A01F90F1A01E40B0E08200089002C
:102AB00035008B004A008D005F008F00740091008C
:102AC000E00B0E08F00A0E086F0F1A0100002640F6
:102AD0000000FC0F003A0280FF00FC0FA8040E0863
:102AE000C8040E08CA040E08FFFFFFCF0320944A53
:102AF0009449A3009B185A58120F024204D05A5806
:102B0000120F0240012A06D10122A240019800883A
:102B10000243019802805A588B48024032435A506F
:102B2000A4E7002CADD1864A874953590B40334363
:102B30005351A6E7854B01931B88002B0FD103F05F
:102B400009F9041E09D0824C42E0013D02F080FFE9
:102B5000022806D0002DF8D17E4C7C6048E67C4DE2
:102B6000F4E7002DF8D000267A4C0123B3409AB246
:102B70000092019A1288134219D00221300003F00A
:102B800063F8002E0BD0300003F016FA002801D0B5
:102B900001F0A8F8002D0AD0013DF4E7013D03F053
:102BA000E1F8002801D001F08EF8002DF6D16A4B33
:102BB00001361B683F331B789E42D6D9CDE7C02033
:102BC0005F4980055B18995801439950EFE7013C34
:102BD00003F0C8F8002802D1002CF8D1BCE7002C83
:102BE000BAD0B122C0235649D20088589B0503436E
:102BF00000248B50B1E704F0F3F900237B60F7E584
:102C000004F040FA00237B60F2E5B868431E984167
:102C1000C0B204F047FA00237B60E9E5BB6818788E
:102C2000072832D8597804F00DFA00237B60DFE5DD
:102C3000BB685A68187800921A7A022825D86B4621
:102C40001B780F2B21D8842301264343434D0024B6
:102C5000EB189C460433DB6F0193009B9E403100D0
:102C6000019B9C421BD06646E300F6580E4226D0DC
:102C7000022A0DD0032A1AD0002A10D184244443FA
:102C80001B19EB185B68DB0709D4354B7B60AFE59C
:102C9000842444431B19EB185B681342F5D00023CE
:102CA00000997B6004F026F90028EED1A0E5842489
:102CB00044431B19EB185B685B07F0D4E5E701346C
:102CC000CEE7BB681878197A0228DED884224243FE
:102CD000224B9B181A1DD46F0022A24207D1002359
:102CE0007B60002B00D083E504F03EF9DCE702298D
:102CF0000AD003290DD0002903D101265D68354291
:102D000005D001320833E8E75D680D42F9D1144B74
:102D1000E6E704265D68F2E7BB681A8918885968F7
:102D200003F066FA786063E5B86803F017FB786033
:102D30005EE5B86802F008FE00237B6058E5C046F7
:102D400000002640FC050000FFFFFFCFC8040E086E
:102D500040420F00FA0F1A01A8040E0864090E0879
:102D6000FE0F1A01AF4B1B78002B01D100F0A7FF1B
:102D700078880838632800D925E604F0E5FCC90006
:102D8000DA00EE0017012A013D015B016F0124FE0C
:102D900083019701AB01CB011A0269024103F803D9
:102DA000140430044C04680484049804AC04C8047B
:102DB000F9040D0521053D05510565058206AD06A1
:102DC000EA061F077B0724FE24FE970724FE24FE45
:102DD00024FE24FE24FE24FE24FE24FE24FE24FEE3
:102DE00024FE24FE24FE24FE24FE24FE24FE24FED3
:102DF00024FE24FE24FE24FE24FE24FE24FE24FEC3
:102E000024FE24FE24FE24FE24FE24FE24FE24FEB2
:102E100024FE24FE24FE24FE24FE24FE24FE24FEA2
:102E200024FE24FE24FE24FE24FE24FE24FE24FE92
:102E300024FE24FE24FE24FE24FE24FE24FE640040
:102E40007F009A00B1000223774CFF33268823804D
:102E5000BB68E21CDBB22579D3775A425341237118
:102E6000FB68FF2B00D1F6E4200001F0F7FA786050
:102E7000002800D1BCE426802571B9E401236A4C06
:102E800026882380BB68221DDBB22579D377023BDD
:102E90005A4253412371FB68FF2B00D1DBE4200031
:102EA00001F0DCFA7860002800D1A1E426802571C9
:102EB0009EE45D4C651DEB7F267800930123237013
:102EC000EB77FB68FF2B00D1C5E4200001F0C6FAC8
:102ED0007860002800D18BE4009B2670EB7787E4B4
:102EE000514C651DEB7F267800930123237000234E
:102EF000EB77FB68FF2B00D1ADE4200001F0AEFAC8
:102F00007860002800D173E4009B2670EB776FE4B3
:102F10000023454C65796371FB68FF2B00D19AE46F
:102F2000200001F09BFA7860002800D160E4657110
:102F30005EE400233C4CA56E667AA3666372FB6870
:102F4000FF2B00D187E4200001F088FA7860002888
:102F500000D14DE46672A5664AE4BB68002B21D01F
:102F6000324A12683F32127893421BD800222E4C0C
:102F7000012B11D1A57AA272FB68FF2B00D16AE464
:102F8000200001F06BFA7860002800D130E4BB68C3
:102F9000012B04D1A5722BE4E57AE272ECE7E5722D
:102FA000FFF726FC224B7B60FFF722FC01231E4C1F
:102FB000E579E371FB68FF2B00D14CE4200001F0C0
:102FC0004DFA7860002801D1FFF712FCE571FFF798
:102FD0000FFC0023144CE579E371FB68FF2B00D153
:102FE00039E4200001F03AFA7860002801D1FFF7B7
:102FF000FFFBE571FFF7FCFB0B48BB6804005A1EA2
:103000009341553425782370FB68FF2B00D122E4CF
:1030100001F024FA7860002801D1FFF7E9FB257060
:10302000FFF7E6FBE00B0E08F00A0E08A8040E08F6
:10303000BD0F1A010123CD48441CE57FE377FB68EF
:10304000FF2B01D1FFF707FC01F008FA7860002898
:1030500001D1FFF7CDFBE577FFF7CAFB0023C3489B
:10306000441CE57FE377FB68FF2B01D1FFF7F3FBFF
:1030700001F0F4F97860002801D1FFF7B9FBE5779A
:10308000FFF7B6FB0123B94C257A2372FB68FF2BAF
:1030900001D1FFF7E0FB200001F0E0F978600028A3
:1030A00001D1FFF7A5FB2572FFF7A2FB0023AF4C70
:1030B000257A2372FB68FF2B01D1FFF7CCFB2000A0
:1030C00001F0CCF97860002801D1FFF791FB25725F
:1030D000FFF78EFBBB68A548DBB20400013B5A42F8
:1030E000534156342578237000237B60FB68FF2B07
:1030F00001D1FFF77DFB037A002B01D1FFF778FBAD
:1031000001F0ACF97860002801D1FFF771FB257060
:10311000FFF76EFB0024B8687C60052834D80122D4
:10312000924B04F007FB032225282B2E5C7D5A7559
:103130007B68002B01D0FFF75BFBFB68FF2B01D105
:10314000FFF756FB894D280001F088F978600028C8
:1031500001D1FFF74DFBB868052801D9FFF748FBFF
:1031600004F0E8FA15181B1E21249C7D9A75DFE7F0
:10317000DC7DDA75DCE71C7E1A76D9E75C7E5A7650
:10318000D6E79C7E9A76D3E7794B7B60D0E76C7567
:10319000FFF72EFBAC75FFF72BFBEC75FFF728FB59
:1031A0002C76FFF725FB6C76FFF722FBAC76FFF75A
:1031B0001FFB0022B8687A60052833D86B4B04F0F7
:1031C000B9FA032225282B2E5C7D5A757B68002BCB
:1031D00001D0FFF70DFBFB68FF2B01D1FFF708FBC8
:1031E000624D280001F03AF97860002801D1FFF71C
:1031F000FFFAB868052801D9FFF7FAFA04F09AFA3D
:1032000016191C1F22259C7D9A75DFE7DC7DDA7577
:10321000DCE71C7E1A76D9E75C7E5A76D6E79C7E80
:103220009A76D3E7524B14007B60CFE76C75FFF7BB
:10323000DFFAAC75FFF7DCFAEC75FFF7D9FA2C76FC
:10324000FFF7D6FA6C76FFF7D3FAAC76FFF7D0FA31
:103250000022BB687A601868052800D9A8E0434CB2
:103260001B79220004F066FA03394B5D6F92A53298
:10327000157813703F4A18001668627DA6340092D4
:1032800003F024F923783C49D84004F071FA394B13
:1032900018607B68002B01D0FFF7AAFA009B002B77
:1032A00001D1FFF7A5FAFB68FF2B01D1FFF7A0FAC8
:1032B0002E4C200001F0D2F87860002801D1FFF7F1
:1032C00097FABB681868052801D9FFF791FA23001F
:1032D00004F030FA72787E848A90AC3215781370DC
:1032E000264A18001668A27DAD34009203F0EEF86D
:1032F00023782149D84004F03BFA204BC8E7B43288
:10330000157813701E4A18001668E27DB5340092D5
:1033100003F0DCF823781849D84004F029FA184B58
:10332000B6E7BC3215781370164A18001668227E6C
:10333000BD34009203F0CAF823780F49D84004F056
:1033400017FA104BA4E7C432157813700E4A180010
:103350001668627EC534009203F0B8F823780649F7
:10336000D84004F005FA084B92E7C046F00A0E0870
:10337000FF0F1A01980B0E0840420F00A00B0E0819
:10338000A80B0E08B00B0E08B80B0E08CC3215783F
:103390001370ED4A18001668A27ECD34009203F037
:1033A00095F82378E949D84004F0E2F9E64B6FE755
:1033B000E74B00927B606CE7A533A8341D70266054
:1033C000FFF716FAAC33B0341D702660FFF710FA21
:1033D000B433B8341D702660FFF70AFABC33C0342A
:1033E0001D702660FFF704FAC433C8341D702660D0
:1033F000FFF7FEF9CC33D0341D702660FFF7F8F9E3
:103400000025BA687D601068052800D982E0D14B9C
:10341000127904F08FF90339475563711E00CE49C4
:10342000A8360C780A70326800925D7DA533187852
:1034300003F04CF8C84B1B78C449D84004F098F905
:1034400030607B68002B01D0FFF7D2F9002D01D14D
:10345000FFF7CEF9FB68FF2B01D1FFF7C9F9BD4D8E
:10346000280000F0FBFF7860002801D1FFF7C0F9C9
:10347000BB681868052801D9FFF7BAF92B0004F0DA
:1034800059F94C535A61686F1E00B449B0360C7834
:103490000A70326800929D7DAC33187803F016F8FC
:1034A000AE4BC8E71E00AE49B8360C780A703268D9
:1034B0000092DD7DB433187803F008F8A84BBAE722
:1034C0001E00A849C0360C780A70326800921D7E32
:1034D000BC33187802F0FAFFA24BACE71E00A249F9
:1034E000C8360C780A70326800925D7EC433187852
:1034F00002F0ECFF9C4B9EE71E009C49D0360C78F6
:103500000A70326800929D7ECC33187802F0DEFF9C
:10351000964B90E78E4B7B6093E7A6331C70009B25
:10352000A8352B60FFF764F9AD331C70009BB035F4
:103530002B60FFF75DF9B5331C70009BB8352B602D
:10354000FFF756F9BD331C70009BC0352B60FFF7A9
:103550004FF9C5331C70009BC8352B60FFF748F945
:10356000CD331C70009BD0352B60FFF741F9794CAF
:10357000A37C250000930123A2352E78A374BB6899
:103580002B70FB68FF2B01D1FFF765F9200000F0DD
:1035900065FF7860002801D1FFF72AF9009B2E70A3
:1035A000A374FFF725F96B4C2500E37CA3352E7837
:1035B00000930123E374BB682B70FB68FF2B01D1E0
:1035C000FFF749F9200000F049FF7860002801D199
:1035D000FFF70EF9009B2E70E374FFF709F95D4CBD
:1035E000237F250000930123D6352E782377BB68EF
:1035F0002B70FB68FF2B01D1FFF72DF9200000F0A5
:103600002DFF7860002801D1FFF7F2F8009B2E70A3
:103610002377FFF7EDF84F48BB680400D8342588BE
:10362000238000237B60837F002B01D1FFF7E0F82C
:10363000FB68FF2B01D1FFF7DBF800F00FFF78608C
:10364000002801D1FFF7D4F82580FFF7D1F84148D1
:10365000BB680400DA342578237000237B60837F05
:10366000002B01D1FFF7C4F8FB68FF2B01D1FFF756
:10367000BFF800F0F3FE7860002801D1FFF7B8F83A
:103680002570FFF7B5F80123324CA57FA377FB68BF
:10369000FF2B01D1FFF7DFF8200000F0DFFE78609C
:1036A000002801D1FFF7A4F8A577FFF7A1F80023C0
:1036B000284CA57FA377FB68FF2B01D1FFF7CBF840
:1036C000200000F0CBFE7860002801D1FFF790F8D1
:1036D000A577FFF78DF81F48BB680400D434257820
:1036E000237000237B60C37E002B01D1FFF780F89D
:1036F000FB68FF2B01D1FFF77BF800F0AFFE78608D
:10370000002801D1FFF774F82570FFF771F8114810
:10371000BB680400D5342578237000237B60C37E0A
:10372000002B01D1FFF764F8FB68FF2B01D1FFF7F5
:103730005FF800F093FE7860002801D1FFF758F899
:103740002570FFF755F8C046C00B0E0840420F0029
:10375000FF0F1A01F00A0E08960B0E089D0B0E08BB
:10376000A50B0E08AD0B0E08B50B0E08BD0B0E0811
:103770000123DD4CE57EE376FB68FF2B01D1FFF7EB
:103780006AF8200000F06AFE7860002801D1FFF797
:103790002FF8E576FFF72CF80023D34CE57EE3768F
:1037A000FB68FF2B01D1FFF756F8200000F056FE12
:1037B0007860002801D1FFF71BF8E576FFF718F8CD
:1037C000C94C637F250000930123D7352E7863779A
:1037D000BB682B70FB68FF2B01D1FFF73CF8200082
:1037E00000F03CFE7860002801D1FFF701F8009B53
:1037F0002E706377FEF7FCFFBB4B5979002903D08D
:10380000BA4B7B60FEF7F4FFBA68106898625068A4
:10381000D8629068D26818635A637960FEF7E8FF4F
:103820000123B14C65796371FB68FF2B01D1FFF770
:1038300012F8200000F012FE7860002801D1FEF797
:10384000D7FF6571FEF7D4FF0025BA687D60106868
:1038500005284CD8A44B03F06DFF03272E353C43BD
:103860001900012096311E7B0D88187393880B80F8
:103870007B68002B01D0FEF7BBFFFB68FF2B01D15B
:10388000FEF7B6FF984C200000F0E8FDBB687860BA
:1038900000284ED01868052801D9FFF794F803F0E6
:1038A00049FF2A2F34393E431900012098315E7BAD
:1038B0000D885873DAE7190001209A319E7B0D8834
:1038C0009873D3E7190001209C31DE7B0D88D873F3
:1038D000CCE7190001209E311E7C0D881874C5E7C5
:1038E00019000120A0315E7C0D885874BEE7804B22
:1038F0002E007B60BCE7267396342580FEF778FFA8
:10390000667398342580FEF773FFA6739A3425807A
:10391000FEF76EFFE6739C342580FEF769FF267480
:103920009E342580FEF764FF6674A0342580FEF780
:103930005FFF1868052801D9FEF75AFF03F0FAFE69
:1039400003203F5F758B637A002B03D0200000F0CB
:10395000D3FCA0662300A5331878002801D0FEF719
:1039600047FF02F0B3FD2300A6331B786149A8345A
:1039700099404B08181803F0FBFE2060FEF738FF53
:10398000A37A002B05D02100012000F0D1FC231DDB
:10399000D8672300A5331878012801D0FEF728FF47
:1039A00002F094FD2300A6331B785249A8349940B5
:1039B0004B08181803F0DCFE2060FEF719FFE37ACD
:1039C000002B06D02100022000F0B2FC23008C3333
:1039D00018602300A5331878022801D0FEF708FFED
:1039E00002F074FD2300A6331B784249A8349940A5
:1039F0004B08181803F0BCFE2060FEF7F9FE230008
:103A0000A5331878032801D0FEF7F2FE02F05EFD20
:103A10002300A6331B783749A83499404B0818185F
:103A200003F0A6FE2060FEF7E3FE2300A53318781E
:103A3000042801D0FEF7DCFE02F048FD2300A63387
:103A40001B782C49A83499404B08181803F090FEB5
:103A50002060FEF7CDFE2300A5331878052801D09D
:103A6000FEF7C6FE02F032FD2300A6331B78214983
:103A7000A83499404B08181803F07AFE2060FEF72E
:103A8000B7FEBA68184B1168D96619009088703172
:103A9000088019009079723108701900D07973315B
:103AA000087019001089743108801900907A7631F5
:103AB00008701900D07A7731087019009089783130
:103AC00008801900907B7A310870128A7C331A8042
:103AD00000237B60FEF78CFE034C657A002D0DD031
:103AE000054B7B60FEF784FEF00A0E08590F1A01A1
:103AF000FF0F1A0140420F003E0F1A010123200060
:103B0000637200F0F9FBFB68A066FF2B01D1FEF7A2
:103B1000A2FE200000F0A2FC7860002803D0A56679
:103B20006572FEF765FE2300A5331878002801D0E2
:103B3000FEF75EFE02F0CAFC2300A6331B78744930
:103B4000A83499404B08181803F012FE2060FEF7C5
:103B50004FFEB9680A68002A05D06E4B1B683F33D8
:103B60001B789A4203D96C4B7B60FEF741FE4B6891
:103B70001E785D789C78D8781979684B012A0FD126
:103B80001A00843216701A00853215701A008632B7
:103B900014701A008732107088331970FEF75BFEBC
:103BA0001A00903216701A00913215701A00923273
:103BB00014701A00933210709433EEE7BD68012D33
:103BC0000FD1564B9B7A002B07D1524B1B683F33CA
:103BD0001B789D4201D8002D08D1514B7B60FEF728
:103BE00007FE022DF1D14D4BDB7AECE74B4C210067
:103BF000012D19D1280000F09BFB231DD867A57269
:103C0000FB68FF2B01D1FEF726FE200000F026FC0A
:103C10007860002817D0BA680023012A0DD1221D30
:103C2000D367A372FEF7E4FD022000F081FB2300BE
:103C30008C3318600123E372E2E722008C321360B8
:103C4000E372FEF7D5FD2300A5331878431E012B40
:103C500001D9FEF7CDFD02F039FC2300A6331B7815
:103C60002B49A83499404B08181803F081FD2060B7
:103C7000FEF7BEFD294C237D250000930123A435CA
:103C80002E782375BB682B70FB68FF2B01D1FEF7E4
:103C9000E2FD200000F0E2FB7860002801D1FEF791
:103CA000A7FD009B2E702375FEF7A2FD01221B4B82
:103CB0009A71BA689A6400237B60FEF799FD194BEC
:103CC0007B60FEF795FD002D01D1FEF770FFB1225C
:103CD000C0201549D2008B58800503438B50002427
:103CE000FEF765FF002D01D1FEF761FF0F4B009C31
:103CF000198800980E4A0C40B300014201D1FEF72A
:103D00005EFF09490B485B18995801409950E6E756
:103D100040420F00A8040E08BD0F1A01F00A0E0859
:103D20002D0F1A01FF0F1A0100002640CA040E08C9
:103D3000FC050000FFFFFFCFF0B5154D87B02A68E6
:103D400002AC1300BA331B88126A9B009B18DB6815
:103D500027001E0001930ECE0EC7336820003B6083
:103D6000FEF71AFD019B07CC07C3852180203B6825
:103D7000490133602B6840031A6ABA3350501888DF
:103D80005158800000218018FEF7CEF907B0F0BD31
:103D9000A8040E08002213B5374910000B000132A9
:103DA00048600831932AFAD1344A00201A60344A14
:103DB0009A60344A1A61344A9A61344A1A62344A1F
:103DC0009A62344A1A63344A9A63344A1A64344A07
:103DD0001268110040310978042900D931489864EB
:103DE000052946D8002119655168012408000830CA
:103DF00098652D48644218662C48DC6758662C4844
:103E000098662C4818672C480918996700210B0000
:103E10002A4801310360446008301029F9D128494B
:103E2000081DC3670800FC308360C42040000B50AD
:103E30008520116A40010918802040038860042110
:103E400068460180128F1F4905324280019302F0BB
:103E5000C5FB002800D001BE6B4600229B5E002BF4
:103E600006DB1F2213401E3A9A401300164A1360C5
:103E700013BD1649B7E7C046CC040E08080026401B
:103E80000007264004072640080726401007264062
:103E900084032640880326408C0326409003264056
:103EA000A8040E08940326400400264000FF03F0F7
:103EB000480526404405264060F000004C050E08E9
:103EC00064090E08393D001000E100E09803264027
:103ED000254BF7B51C68002C45D02378002B0BD060
:103EE000A568E668290032002020FEF785FB320035
:103EF00029008920FEF722FC6378002B18D0266A5F
:103F0000A76A31003A003520FEF776FB636AE56A5E
:103F100019002A004A200193FEF76EFB3A00310097
:103F20008B20FEF70BFC2A008D200199FEF706FC82
:103F3000A378002B17D0266BA76B31003A005F20C7
:103F4000FEF75AFB656BE46B290022007420FEF734
:103F500053FB3A0031008F20FEF7F0FB22002900CE
:103F60009120FEF7EBFBF7BDE40B0E081FB56C4686
:103F700020800D4C029201946C466180072807D185
:103F8000FF2368460393FEF707FC002004B010BD32
:103F9000052807D1002905D168460393FEF7FCFBED
:103FA0000198F3E70148F1E7FC0F1801FF0F1A0130
:103FB00000B5032808D8431E0020022B17D818008C
:103FC00003F0B8FB0F1618001223FF33984216D0E7
:103FD0001423FF33984214D0033B98420DD00F486E
:103FE00005E08879434258410C4B4042184000BDDF
:103FF0004879F7E70231C87FF4E7C879F2E7087A31
:10400000F0E70131CB7F002BE9D0054B1B68413332
:1040100018780138431E9841E6E7C046FE0F1A01A2
:10402000A8040E0810B51B4B1B683E331B78834257
:104030002DD905282BD803F07DFB030C12181E2464
:104040000B7B002B23D00B0096331888FFF7B0FFB3
:1040500010BD4B7B002B1AD00B009833F5E78B7B00
:10406000002B14D00B009A33EFE7CB7B002B0ED044
:104070000B009C33E9E70B7C002B08D00B009E3330
:10408000E3E74B7C002B02D00B00A033DDE70248B6
:10409000DEE7C046A8040E08FE0F1A0188235B0065
:1040A000984228D00BD8012814D0022814D0431EDF
:1040B0009841144B40421840134BC01809E012239A
:1040C000FF3398421AD01423FF33984206D00220BF
:1040D00040427047886CFCE7886AFAE70B4B1B6824
:1040E000413318780138431E9841094B404218402B
:1040F00080231B02E1E7FA20C001EAE780200002EA
:10410000E7E7C046FEED85FF00127A00A8040E081E
:10411000FE7FFFFF02235B4270B51360344B150036
:104120001B6804001A003E32127882425ED90528CC
:104130005CD803F0FFFA031934494F550B7B002B71
:1041400054D04B7A002B08D00B007A331B78022B0B
:1041500003D08B6E2B60200070BD0B009633188847
:10416000FFF79CFF2860F6E74A7B002A3ED03F33EA
:104170001B78002B0CD08B7A002B09D00B008833D6
:104180001B78022B04D00431CB6F2B600024E2E7B4
:104190000B0098331888FFF781FF2860F6E78A7BC9
:1041A000002A23D03F331B78012B0AD9CB7A002B6E
:1041B00007D00B0094331B78022B02D08C310B6894
:1041C000E3E70B009A33E5E7CB7B002B0ED00B0027
:1041D0009C33DFE70B7C002B08D00B009E33D9E724
:1041E0004B7C002B02D00B00A033D3E7014CB2E78D
:1041F000A8040E08FE0F1A0110B51C4B1B683E33B5
:104200001C781B4B13600023844201D8180010BD9A
:104210000528FBD803F08EFA030C12181E24002385
:10422000087B96319842F1D00B8800211160EDE7B0
:104230000023487B98319842F6D1E7E70023887B3A
:104240009A319842F0D1E1E70023C87B9C31984233
:10425000EAD1DBE70023087C9E319842E4D1D5E720
:104260000023487C9842D1D0A031DDE7A8040E0895
:10427000FE0F1A010300A8331B6810B50400002BC1
:1042800002D00848584310BD0300A533187802F047
:104290001DF90123A634227893405B081818D040FA
:1042A000F1E7C04640420F0010B5040001F0BEFE29
:1042B000002805D12000034901F042FF002800D06A
:1042C000014810BD10270000FD0F1A0170B5040051
:1042D000150001F047FA00280AD12900200001F05A
:1042E00073FA002804D1200001F0E6F9002800D07C
:1042F000004870BDFD0F1A01030010B5040096338D
:1043000018882100FFF7CAFE030000209A1C0DD078
:10431000220070321188814208D0E06E7334584315
:1043200003F026FA2178013103F022FA10BD0000D3
:1043300070B500250C00A84221D01B4B1B683F33F1
:104340001B7883421BD301281BD10B00983318889C
:10435000FFF7A4FE23002200843385321B781178F6
:1043600086342578821C1BD000291BD0002D06D056
:10437000584303F0FDF9290003F0FAF9050028007D
:1043800070BD0228FBD10B009A331888FFF786FE18
:1043900023002200903391321B7811789234E0E7A9
:1043A0000025ECE70D00EAE7A8040E08F8B50400C4
:1043B0000F00012932D10300817A427B0430C66F9D
:1043C000983383301B8805780020814225D08242B3
:1043D00031D018002100FFF761FE184BC018184BB0
:1043E000984228D86B1E9D41164B6D421D40164BBE
:1043F000ED182379002B1AD0AE421CD3134B9E42EA
:1044000019D821003800FFF793FF361A73425E4136
:104410000F4B704218400F4BC018F8BD0300C17A13
:10442000827B9A338C301B880668C579CCE7AE4214
:1044300001D3094BE3E70748EFE7C04600F7C2FFA7
:1044400000879303C863E3FF20BCBE0080F0FA023C
:1044500002F0E5FEFE0F1A0180D1F008F0B504006D
:104460008BB0002801D100F05CFF0500A5352100CC
:10447000287805AAFFF7C0FE059F002F04D0014F42
:10448000C1E2C0469F0F1A01022800D172E2122336
:10449000FF33984200D197E201281DD1D44B1B680D
:1044A000002B00D1B2E21A78002A00D1AEE259689E
:1044B000A26C914200D0A9E29968E26C914200D0CE
:1044C000A4E2DA68236D9A4200D09FE223005433BD
:1044D0001B78102B00D099E201F0BAFA02281ED006
:1044E0006379002B1BD0C34AA36A9B18C24A93422C
:1044F00001D900F019FFE36A013B632B01D900F0F9
:1045000013FFFA22236B9200013B934201D300F088
:104510000BFF636B013B934201D300F005FFA379CE
:10452000002B0ED02279A36C002A00D170E2B34A8E
:10453000934201D900F0FBFEE36C002B01D100F0A7
:10454000F6FE237B002B0FD0AD4B1B683E331B7850
:10455000002B09D02300963321001888FFF728FD8F
:10456000002801D000F0E6FE637B002B0FD0A44BA7
:104570001B683E331B78012B09D923009833210097
:104580001888FFF715FD002801D000F0D6FEA37BA8
:10459000002B0FD09A4B1B683E331B78022B09D996
:1045A00023009A3321001888FFF702FD002801D06C
:1045B00000F0C6FEE37B002B0FD0914B1B683E330F
:1045C0001B78032B09D923009C3321001888FFF79F
:1045D000EFFC002801D000F0B6FE237C002B0FD0AA
:1045E000874B1B683E331B78042B09D923009E336D
:1045F00021001888FFF7DCFC002801D000F0A6FE9F
:10460000637C002B0FD07E4B1B683E331B78052B41
:1046100009D92300A03321001888FFF7C9FC00281E
:1046200001D000F096FE01F095FB00285FD1637A7F
:10463000002B5CD0237B002B01D100F08DFE2300EA
:10464000963318882100FFF729FD6E4BC0186E4B7A
:10465000984201D900F080FE6C4AA36E9B18227923
:10466000002A00D1D6E16A4A934201D900F074FED3
:10467000E36E684A013B934201D900F06DFE2300CE
:1046800070331B88644A013B9BB2934201D900F00E
:1046900063FE230072331B78042B01D900F05CFE0B
:1046A0002300802274331B889200934201D300F0D0
:1046B00053FE230076331B780F2B01D900F04CFEFC
:1046C000230077331B780F2B01D900F045FE230020
:1046D000802178331B8889018B4201D300F03CFE96
:1046E00023007C331B88934201D300F035FE444EF7
:1046F00033683F331B78002B13D0A37A002B10D0E4
:10470000012001F04FFC00280BD133683F331B78A8
:10471000002B05D001212000FFF748FE002800D023
:104720003E4F33683F331B78012B00D882E1E37A98
:10473000002B00D17EE1002F01D000F010FE0220FE
:1047400001F030FC002800D166E1237F0293002BAA
:1047500000D073E1637D002B00D190E633680393B2
:1047600040331F78002F00D189E62D7821002800E2
:10477000FFF758FC002800D081E62100280004AA99
:10478000FFF73AFD88235B00984200D177E61423B7
:10479000FF33984200D172E6032800D16FE6049BF4
:1047A000002B00D06BE605AA21002800FFF7B2FC21
:1047B0001B4B059A9A4200D861E6002800D05EE6BD
:1047C0002300A8331B68002B00D158E62200154EA9
:1047D000154D7343A6321278AB4200D94FE6032A37
:1047E00000D94CE6A37D002B39D0012F37D01DE036
:1047F000E40B0E0800DC0BFFC0EA210180F0FA0296
:10480000A8040E0818FCFFFF18DDF50500CA91FE8C
:1048100080BA8C01FEFF0300FE1F0000BF0F1A01CB
:104820003F0D030040420F0080D1F0082300AC335D
:1048300021001878FFF7F6FB002801D000F067FC94
:104840002300B0331B687343AB4201D900F05FFC17
:104850002300AD331B78032B01D900F058FCE37D16
:10486000002B1AD0022F18D92300B4332100187856
:10487000FFF7D8FB002801D000F071FC2300B8330B
:104880001B687343AB4201D900F069FC2300B533C8
:104890001B78032B01D900F062FC237E002B1AD079
:1048A000032F18D92300BC3321001878FFF7BAFB77
:1048B000002801D000F04CFC2300C0331B68734378
:1048C000AB4201D900F044FC2300BD331B78032B1D
:1048D00001D900F03DFC637E002B1AD0042F18D9BB
:1048E0002300C43321001878FFF79CFB002801D077
:1048F00000F049FC2300C8331B687343AB4201D965
:1049000000F041FC2300C5331B78032B01D900F0D4
:104910003AFCA37E002B1AD0052F18D92300CC33E4
:1049200021001878FFF77EFB002801D000F06BFC17
:104930002300D0331B685E43AE4201D900F063FC14
:104940002300CD331B78032B01D900F05CFCE37E00
:10495000002B00D08DE0637F002B00D1AAE0230064
:10496000D7331B78002B00D1A0E0012B00D1A9E0A8
:10497000AC4F48E0AC4B1B68002B23D05A78002A80
:1049800020D01969A26A91421CD15969E26A914208
:1049900018D19969226B914214D1D969626B914205
:1049A00010D1196AA26B91420CD1596AE26B914203
:1049B00008D1996A226C914204D1DA6A636C9A42F6
:1049C00000D189E5994F1EE0974B1B68002B19D049
:1049D0009A78002A16D022005632D978127891425D
:1049E00010D1196BA26D91420CD1596BE26D9142BD
:1049F00008D1996B226E914204D1DA6B636E9A42B0
:104A000000D169E58A4F38000BB0F0BD894FFAE755
:104A1000894A8DE5894A27E633683F331B78012BA5
:104A200006D902212000FFF7C1FC002800D18CE646
:104A3000834FE8E7002F00D187E6E4E72300D63371
:104A40001B78012B09D0032B09D0002B03D1E3796C
:104A5000002B00D07EE67B4FD5E7237AF8E7631C76
:104A6000DB7F002BF7D0336841331B78012BF2D169
:104A700070E62300D4331F7821003800FFF7D2FA04
:104A8000002811D12300D5331E78042E0CD8210024
:104A9000380005AAFFF73EFB002805D1059B6A4AAE
:104AA000F340934200D856E7684FACE7237A002BD7
:104AB00000D15DE7A37C002B20D1E37C002B2BD120
:104AC000634FA0E7029B002B00D151E72300D633B0
:104AD0001B78012BEAD0032B04D0002B00D047E732
:104AE000E379E4E7631CDB7F002B00D140E7039B05
:104AF00041331B78012B00D03AE7DBE72000FFF7BA
:104B0000B9FB2300A2331978013102F031FE4E4B7C
:104B10009842D2D94F4F76E7637D002BD0D020004A
:104B2000FFF7A8FBA842CBD82600A3363178013185
:104B300002F01EFE2379002B0AD0474B9842BFD8C3
:104B4000A37F002B06D1237D002B38D1434F5AE79A
:104B5000394BF3E72300D8331B88012B09D02BD91D
:104B60003F4A934205D002213E4AFF311A408A4211
:104B700002D1627D002A01D13B4F44E70222FF327D
:104B80000227934208D0364AFF19934204D0374A8D
:104B9000033F934200D107372000FFF76BFB230050
:104BA000DA331978013102F0E3FD390002F0E0FD5B
:104BB000254B9842C7D9DFE701272D48EFE7E37C73
:104BC000002BC3D02000FFF755FBA84200D977E7A0
:104BD0003178E71C013102F0CBFD2300A4330293AE
:104BE0001978251D013102F0C3FD134B9842ADD851
:104BF0009621002001F0A8FD2378002B52D0637885
:104C0000002B39D0F87F012806D9631DDB7F002BEC
:104C10003AD102F0B3FA39E002F00AFB0028F4D0EE
:104C2000144FF0E68E0F1A01E40B0E08580F1A010C
:104C3000560F1A01570F1A0100E1F50500AB870462
:104C4000BE0F1A01AF0F1A010084D7178F0F1A0178
:104C50008C0F1A018D0F1A0140787D018B0F1A01FC
:104C600001020000FFFDFFFF890F1A010103000090
:104C700000127A006F0F1A01E87F022801D0052880
:104C8000C3D102F035FBC9E702F048FA0028C7D1CA
:104C900002F0C6FBA378002B02D102F0AFFB01E0CB
:104CA00002F09CFB9E4D2B6841331B78012B09D1F0
:104CB00000F02EFE631CDB7F002867D0002B01D1A3
:104CC00000F030FE974B08221968237A0F00174036
:104CD000114262D0002B04D17B2001F0E1FC00F0F6
:104CE000D3FD237F002B0ED02300D6331F7800F096
:104CF0009BFC874207D002F0ADFB002800D031E3D7
:104D0000380000F07DFC00F0A3FE637902286BD12F
:104D1000002B01D100F08AFEA379002B0ED0E06CAD
:104D2000002808D0230054331B7808220093216DFB
:104D30000023FDF7D5F9A06C00F066FEA37C002BE4
:104D400004D02300A233187800F09CFCE37C002BF5
:104D500002D0307800F072FC237D002B03D0029B40
:104D6000187800F047FB2600122296363388FF326F
:104D7000934274D12300A533197800296FD1012003
:104D800000F062FF002858D0674F3CE6002B99D016
:104D900002F03EFC00F0A0FD94E7002BA1D002F051
:104DA00037FCA06D00280FD0E36D002B0CD03B002A
:104DB0003A00216E0097FDF793F93B003A00616ECF
:104DC000E06D0097FDF78CF9230056331878002822
:104DD00000D0012000F068FD544800F031FD0028AB
:104DE00000D17EE7524F0EE6002B95D002F010FC6A
:104DF000A06B002810D0E36B002B0DD00027216C96
:104E00003B003A000097FDF76BF93B003A00616CFC
:104E1000E06B0097FDF764F9636B226BE16AA06AAF
:104E200000F024FE002801D0424FECE5424800F09B
:104E3000C7FE002800D16FE7F6E7012100F092FCE1
:104E400000280AD1237B002B12D00020318800F0EB
:104E5000FBFE00280CD0394FD5E5394FD3E52300B0
:104E600098330120198800F0EFFE0028EAD08BE784
:104E7000A37B002B09D023009A330220198800F06D
:104E8000E3FE002801D02F4FBDE5E37B002B1AD1B4
:104E9000237C002B26D1637C002B32D100F05AFFFB
:104EA000002859D001F090FA07002000FFF724FAFB
:104EB000637A002B01D0874251D000F05DFF0028BB
:104EC0004AD0214F9FE52B683E331B78032BDFD957
:104ED00023009C330320198800F0B6FE0028D7D0A9
:104EE0001A4F90E52B683E331B78042BD3D923004F
:104EF0009E330420198800F0A7FE0028CBD0144F61
:104F000081E52B683E331B78052BC7D92300A033DE
:104F10000520198800F098FE0028BFD00D4F72E5DB
:104F2000A8040E08000027404E0F1A0140420F004F
:104F30005A0F1A015F0F1A01B80B00004F0F1A0128
:104F40000F0F1A014D0F1A013F0F1A014C0F1A01D2
:104F50004B0F1A014A0F1A01637A002B20D000F080
:104F6000F9FE00281CD102F053FB2300E16E7833D8
:104F70001A8802331B780591216F05A80691616F8D
:104F800007918373230082817C331B88038200F0A6
:104F900017FF002895D1BD4800F0A0FF002890D150
:104FA0002300A53302930020197800F0DBFB0028D2
:104FB00000D052E72300A633197800F005FC071E45
:104FC00000D04AE712223388FF3293425DD02B682B
:104FD0003F331B78002B3FD0012000F0E3FF002877
:104FE00064D1A37A002B14D0012000F0DBFF00284D
:104FF0000FD1230088331A78803BDB6F05AE059311
:10500000327102F005FB31000120FFF74DF9002855
:1050100060D12B683F331B78012B1DD9022000F093
:10502000C1FF002858D1E37A002B15D0022000F0F0
:10503000B9FF002810D123002200943390321B784E
:10504000126805AE0592337102F0E2FA31000220D7
:10505000FFF72AF9002853D1012000F04FFBA37D70
:10506000002856D0002B4DD0022000F047FBE37DF6
:10507000002859D1002B59D02300B5331A78013BB1
:1050800019780220FFF722F967E0029B1B78002BBA
:105090009DD1637B002B00D176E62300983301205D
:1050A000198800F0D1FD002891D06DE6012001F0B3
:1050B000C3F9210006000120FFF73AF9A37A002B7B
:1050C00001D0864290D002F0A3FA012000F07EFFCA
:1050D000002886D06E4F96E4022001F0ADF9210041
:1050E00006000220FFF724F9E37A002B01D0864264
:1050F0009CD002F08DFA022000F068FF002892D0C8
:10510000644F80E4012000F00BFB0028ACD0624F1C
:1051100079E4002BA8D02300AD331A78013B19782D
:105120000120FFF7D3F8F0E7002B13D02B684033B2
:105130001B78032B15D9032000F0E0FA237E00280A
:1051400023D0002B0DD1032000F0EAFA002808D06C
:10515000524F58E4022000F0E3FA0028E6D0504F06
:1051600051E42B6840331B78042B19D9042000F03C
:10517000C5FA637E00282ED0002B11D1042000F048
:10518000CFFA00280CD0474F3DE4002BE9D0230094
:10519000BD331A78013B19780320FFF797F8D5E75C
:1051A0002B6840331B78052B20D800F00DFAA37F25
:1051B000002836D1002B38D02300D8331E889D78A4
:1051C00000F00CFA300000F0B9F9280000F0D0F936
:1051D00000F0E6F929E0002BE2D02300C5331A786D
:1051E000013B19780420FFF771F8CAE7052000F0A9
:1051F00085FAA37E002809D0002BD6D1052000F027
:105200008FFA0028D1D0284FFFF7FDFB002BCCD020
:105210002300CD331A78013B19780520FFF756F8A3
:10522000EFE7002B01D100F0D9F900F051F9E37E4E
:10523000002819D0002B01D100F054F9637F002B16
:1052400004D02300D733187800F060F92300174EFC
:1052500055331D783378AB4230D002F0FBF800288C
:1052600028D0134FFFF7CFFB002BE7D02300D43318
:105270001E785D7800F036F9300000F0E3F8280081
:1052800000F0FAF800F012F9D8E7C046400D03002C
:105290002F0F1A012E0F1A019E0F1A019C0F1A01CF
:1052A0009D0F1A019B0F1A019A0F1A01E80B0E08A5
:1052B0005C0F1A01280000F093FB357000F066FBCC
:1052C000E379002820D0002B0ED1A32001F0E8F9CB
:1052D00000F05CFB002807D002F0BCF80028C0D129
:1052E00000F05EFB0028BCD12378002B08D0637D42
:1052F000002B05D02300A8332079196801F024FA87
:1053000002F086F9FFF77FFB002BEDD000F03EFBAB
:105310000028E9D102F09EF80028A2D100F022FB7B
:10532000E2E7124FFFF76FFB114FFFF76CFB114FD6
:10533000FFF769FB104FFFF766FB104FFFF763FBAA
:105340000F4FFFF760FB0F4FFFF75DFB0E4FFFF7AF
:105350005AFB0E4FFFF757FB0D4FFFF754FB0D4F56
:10536000FFF751FB0C4FFFF74EFBC046FE0F1A0133
:10537000EF0F1A01EE0F1A01DF0F1A01DE0F1A01EB
:10538000DD0F1A01DC0F1A01DB0F1A01DA0F1A0107
:10539000CF0F1A01BF0F1A011F0F1A017047704774
:1053A000F0220B04120310B513400C000F2214401E
:1053B0002343084C80022468246900198024E401F6
:1053C000035100591040401A431E9841024B40427D
:1053D000184010BDA8040E080300C200044B103092
:1053E0001B6880021B69C0580F2318407047C046D5
:1053F000A8040E0810B50200040000232B2107208A
:10540000FEF7B4FD064B24021B68190088311A68A8
:105410000B680449D21813680B401C43146010BD7C
:10542000A8040E08FF00FFFF054B1B681A00883216
:105430001B6812689B181868000AC0B27047C04603
:10544000A8040E0810B50200040000231F21072045
:10545000FEF78CFDA022F0200549D20000012402B5
:105460008B580440034803401C438C5010BDC04679
:1054700000002640FFF0FFFF10B5020004000023EB
:1054800020210720FEF772FDA022E0200549D2006E
:10549000C00124038B580440034803401C438C5034
:1054A00010BDC04600002640FF8FFFFF00230122F1
:1054B000212110B50720FEF759FDA02280230349C2
:1054C000D20088581B0203438B5010BD00002640B9
:1054D000A023034ADB00D0580004C00F7047C04629
:1054E00000002640002322211A0010B50720FEF7F5
:1054F0003DFDA0220349D2008B58034803408B5046
:1055000010BDC04600002640FF7FFFFF10B502001F
:105510000400002323210720FEF728FDC021054AAF
:105520008900240213680C4003490B401C4314609B
:1055300010BDC04600002740FFFCFFFF10B504006F
:10554000020000231B210720FEF710FD0449054A35
:1055500005488B580340054804401C438C5010BD3F
:105560000000264004050000FEFCFFFF01030000D0
:1055700010B50400020000231C210720FEF7F6FCF2
:105580000449054A05488B58240403401C438C50A9
:1055900010BDC0460000264004050000FFFF00FFCC
:1055A000002301221D2110B50720FEF7DFFC802318
:1055B0000349044A1B06885803438B5010BDC0465C
:1055C0000000264004050000024A034BD058C00FDB
:1055D0007047C046000026400405000000231E213D
:1055E0001A0010B50720FEF7C1FC0349034A8B5887
:1055F0005B005B088B5010BD0000264004050000D6
:1056000010B50200040000231A210720FEF7AEFCAB
:10561000A02203200349D2008B58044083431C433B
:105620008C5010BD00002640A023034ADB00D05858
:10563000032318407047C0460000264010B5020002
:105640000400002319210720FEF790FC064B2406D6
:105650001B681A0088321B6812689B1818680002C1
:10566000000A2043186010BDA8040E08044B1B68F4
:105670001A0088321B6812689B181868000E704761
:10568000A8040E0810B5020004000023182107200A
:10569000FEF76CFC064B24021B6819008C311A685B
:1056A0000B680449D21813680B401C43146010BDEA
:1056B000A8040E08FF00FFFF10B50D4B04001B6887
:1056C00040331B78834211D90200002314210720A4
:1056D000FEF74CFC074BE022A400E41880230020D6
:1056E0009200A1581B060B43A35010BD0248FCE7D3
:1056F000A8040E080000264001004A00064A0300E4
:1057000012680020403212789A4204D9034AE033EA
:105710009B009858C00F7047A8040E080000264050
:1057200010B5041E16D00C4B1B6840331B78834207
:1057300010D90200002315210720FEF717FCE022F4
:105740000020064BA400E4189200A3585B005B08FD
:10575000A35010BD0248FCE7A8040E080000264034
:1057600001004A0037B5104B04001B680D004033A0
:105770001B78834216D90F2914D86B466A461971D3
:105780000090002316210720FEF7F0FB074BA40032
:10579000E418E0230F2200209B00E15891432943A5
:1057A000E1503EBD0248FCE7A8040E080000264078
:1057B00001004A00034BE0308000C0580F2318401E
:1057C0007047C0460000264037B5114B04001B68E7
:1057D0000D0040331B78834217D9032915D86B4637
:1057E0006A4619710090002317210720FEF7BEFBBF
:1057F000E02230210020074BA400E4189200A358B7
:105800002D018B431D43A5503EBD0348FCE7C04618
:10581000A8040E080000264001004A00034BE030B7
:105820008000C0588006800F7047C04600002640A8
:10583000024B18694007C00F7047C0460000274060
:1058400002000023112110B504000720FEF78EFB93
:1058500008230B4A11680B431360FFF7E9FF002888
:1058600008D1002C01D1074810BD012000F018FF1D
:10587000013CF2E763425C41024B60421840F3E7AF
:105880000000274002004A00002312211A0010B530
:105890000720FEF76BFB0821024A13688B43136055
:1058A00010BDC0460000274010B5020004000023D0
:1058B00013210720FEF75AFB8021054A49022404E0
:1058C00013680C4003490B401C43146010BDC046D4
:1058D00000002740FFFFFEFF70B50E2100230122CC
:1058E0000720FEF743FB8023074D084C1B062A596F
:1058F000012013432B5100F0BBFEC0232A59DB05C6
:1059000013432B5170BDC046000026403C050000EB
:10591000024A034BD0588000C00F70470000264059
:105920003C05000000230F211A0010B50720FEF7E8
:105930001DFB0349034A8B58DB00DB088B5010BD6D
:10594000000026403C0500000449054A80058B58AC
:10595000800D9B0A9B0203438B507047000026403A
:105960003C050000002301220B2110B50720FEF7A3
:10597000FDFA80230349044A1B06885803438B50D1
:1059800010BDC046000026400C050000024A034B33
:10599000D058C00F7047C046000026400C050000DC
:1059A00000230C211A00072010B5FEF7DFFAC023F0
:1059B000084A5B00D158803B0800FF3B1840194261
:1059C00005D1054953585B005B08535010BD03488F
:1059D000FCE7C046000026400C05000003004A001A
:1059E00010B50200040000230D210720FEF7BEFAC7
:1059F00001200349034BCA5882432243CA5010BDB9
:105A0000000026400C050000064B10B5040098422B
:105A100007D8002302002E210720FEF7A7FA024B29
:105A20001C6010BD00E1F505F40B0E0800230821F1
:105A30001A0010B50720FEF799FA0349034A8B585C
:105A40005B005B088B5010BD000026402C05000059
:105A5000A6220549D2008B580220DB439B0702D0C7
:105A6000012388581840704700002640F0B587B0E1
:105A7000029003910492059306000C0015001F008C
:105A800024210023072002AAFEF770FA00900028C4
:105A900001D13A4B1E603A4B3A4A9B58002B6ADBC5
:105AA000394B3A4AF318934262D8631E632B5FD88E
:105AB000FA216B1E89008B425AD2FA227B1ED20039
:105AC000934255D23000F530FF3001F051FE019085
:105AD0002F486B0878432900C01801F049FE802147
:105AE0008446102200230902180008430700474398
:105AF000BC4500D30300013A4908002AF4D10199BA
:105B00002448614358434B08C01801F031FE224B32
:105B100098422DD90198214B40432149C01801F0EA
:105B200027FE644360436421323001F021FE454387
:105B30001C4B9D421CD828001B4901F019FE1B4B31
:105B40009D4202D80138431E98410D4C184A19490C
:105B5000A35800030B401843174B0A490343A350B3
:105B60000223625813436350044B1E6000230093CA
:105B7000009807B0F0BD114BF9E7C046F80B0E08CE
:105B8000000026402C05000000DC0BFFC0EA2101CC
:105B900080841E00B36D0200890200005DF70000E2
:105BA000BBEE01007FEE3600A0BB0D003F771B006F
:105BB00020FF000008C0FFFFF703000003004A00B9
:105BC000F8B5174D174E00230200040025210720C9
:105BD000FEF7CCF9AB59002B1FDB80232700AA5915
:105BE0001B061343AB51FFF733FF022809D0002FE8
:105BF00002D1002C0FD009E0012000F051FD013F3F
:105C0000F1E7002C07D00024A74204D1AB59064C81
:105C10005B005B08AB512000F8BD044CFBE7C046BD
:105C2000000026402C05000002004A0003004A0044
:105C300010B5FFF70DFF0023022801D1014B1B68AF
:105C4000180010BDF80B0E0837B5174B04001B6881
:105C50000D003E331B78834223D9042903D94B1E00
:105C6000FF3B132B1DD86B466A469D8026210023DF
:105C700007200094FEF77AF9FF2D0DD90B4AA400F6
:105C8000A4181F23C0222B409200A350D02304222B
:105C90009B00E25000203EBD044BD034A400E550F0
:105CA000F8E70348F7E7C046A8040E0800002640BE
:105CB00001004A00084A83009B18D022920098589D
:105CC00007221040042806D1C02292009B581F22B0
:105CD000FC301340184370470000264010B5FFF712
:105CE000E9FF88235B0098421CD00BD8012813D011
:105CF000022814D0431E9841104B40421840104BCC
:105D0000C01810BD1223FF33984210D01423FF3364
:105D1000984210D00020F4E70A4B1868F1E7FFF72B
:105D200087FFEEE7084A094BD058C00F01E0FFF7A4
:105D30007FFDC003E5E7044A054BF5E700EE85FF6C
:105D400000127A00F40B0E08000026400C0500003B
:105D50003C050000B023024ADB00D058C00F70475A
:105D600000002640B223034ADB00D058012318402C
:105D70007047C04600002640002309211A0010B5D4
:105D80000720FEF7F3F8B1200A4BC00019580A4A61
:105D90001140802292050A43B0211A50C9005A5876
:105DA0000020520052085A5004495A5852005208D2
:105DB0005A5010BD00002640FFFFFFCF8C050000A9
:105DC0000200002370B5272104000720FEF7CEF85B
:105DD000B020214AC0001358002B3BDB2368E17937
:105DE0009B0309069B0B0B4313502389A0881B4977
:105DF0001B04C0040B40C00C03431948194D135039
:105E0000FF20E37AE0261B010340A089F600000290
:105E100028400F250343A07A2840C0250343A07BD8
:105E2000AD05000728400343B120C0001350A379FB
:105E30000D481B02155833400C4E35402B43135070
:105E4000238A15581B040B40094929400B43135062
:105E5000002070BD0748FCE7000026400000FF015D
:105E60008405000000FF1F008C050000FFF8FFFF05
:105E7000FFFF00FE03004A00B023154ADB00D358A1
:105E800010B59903DB01DB0F890BC371114B016066
:105E9000D3580F24D904DB01DB0D0381B123DB00D0
:105EA000D358C90C81801900214081721909214001
:105EB000C172D9029B009B0F8373074BC90CD35847
:105EC00081815A05DB01520FDB0D8271038210BD07
:105ED00000002640840500008C050000F8B5040091
