:020000041000EA
:1004000000C002087B0500100D000000D905001097
:1004100000000000000000000000000000000000DC
:10042000000000000000000000000000D5050010E2
:100430000000000000000000D5050010D5050010E8
:10044000D5050010D5050010D5050010D505001004
:10045000D5050010D5050010D5050010D5050010F4
:10046000D5050010D5050010D5050010D5050010E4
:10047000D5050010D5050010D5050010D5050010D4
:10048000D5050010D5050010D5050010D5050010C4
:10049000D5050010D5050010D5050010D5050010B4
:1004A000D5050010D5050010D5050010D5050010A4
:1004B000D5050010D5050010D5050010D505001094
:1004C0000448054B10B5834203D0044B002B00D0E9
:1004D000984710BD380502083805020800000000E2
:1004E00006480749091A8B10C90FC91810B54910D9
:1004F00003D0044B002B00D0984710BD38050208EC
:10050000380502080000000010B5074C2378002BC6
:1005100009D1FFF7D5FF054B002B02D0044800E0BE
:1005200000BF0123237010BD580502080000000021
:1005300090A10010054B10B5002B03D004490548CD
:1005400000E000BFFFF7CCFF10BDC0460000000078
:100550005C05020890A100100230800803D0013031
:100560000238FCD1C046C0467047EFF3108072B627
:10057000704780F3108870477047FFF7FDFF72B631
:100580000E4C0F4DAC4209DA21686268A368043B47
:1005900002DBC858D050FAE70C34F3E709490A4A9D
:1005A0000020521A02DD043A8850FCDC0748084952
:1005B0000860BFF34F8F07F01BFDFEE79CA1001002
:1005C000B4A10010580502080C110208000002082E
:1005D00008ED00E0FEE7FEE700B5042071460842A2
:1005E00002D0EFF3098002E0EFF30880043006F058
:1005F000A3FDFEE70200093A03000120042A03D903
:10060000203B18004342584170470000F0B50027D6
:1006100015003C008BB00493109B03901B0CDBB2C5
:100620000793109B01911B0ADBB20893109B029069
:10063000DBB20993029B069301330293069B1E785B
:10064000002E08D0019B002B23DB039A029B9B1AF0
:10065000019A93421DDD109BDBB20593002B78D0ED
:100660009E4200D0BCE0019B002B06DB039A029B5C
:100670009B1A019A934200DDB2E0069B029A023374
:100680001678022F00D16EE061DC62D00124644252
:1006900066E03000FFF7AEFF0028CBD1099BB342E4
:1006A000D9D0514B31001800059309F089F8031E89
:1006B00007D1079BB3420BD0089BB342E6D1059B01
:1006C0003F33032FB6D8380007F082FD05102234DF
:1006D000059B3E33F5E7002D06D0049A9442D5D20F
:1006E000414A9B1A9B002B550127A3E7621C002D52
:1006F0000BD004998A42C9D23B4829191B1A285D9C
:100700001E1130431B0108704B701400022791E743
:10071000621C002D0BD004998A42B7D232482919A5
:100720001B1A285D9E1030439B0108704B7014000B
:1007300003277FE7002D07D0049A9442A6D22A4AC5
:100740009B1A2A5D13432B550027013472E7032FB0
:1007500024D0049B9C4299D2002D01D000232B551C
:1007600020000BB0F0BD1F00002E00D18EE7019BD2
:10077000002B24DB039B019AFB1A93421FDD059B90
:10078000B34200D082E7019B002B05DD039B019A59
:10079000FB1A934200DD79E73E787B1C1F00002E98
:1007A00007D0019B002B12DB039B019AFB1A93429B
:1007B0000DDD002DCDD02B5D002BCAD066E73000BB
:1007C000FFF718FF0028DAD03E780137CCE7300079
:1007D000FFF710FF002800D158E73E780137DEE729
:1007E000002FB6D052E7C046D89A0010002301006F
:1007F000180010B5CA5C1400303C092C09D83038F8
:1008000010185A1C032B03D013000001042AF1D145
:1008100010BD1400413C052C01D83738F0E7140016
:10082000613C052C01D85738EAE70020F0E70000CA
:10083000F0B50B7885B002900392222B11D14F1C9A
:100840003E0000233278222A00D1AEE0002A0AD0EE
:100850005C2A04D17278002A05D0013301360136B2
:10086000F0E7039B1960002010E03B785C2B0FD071
:100870002B7001370135B742F7D30023029A2B7052
:100880000833D3601300019A701C1A6105B0F0BDE3
:10089000787875280AD86D280FD862281AD015D80C
:1008A0002F2823D05C2821D022281FD0039B019819
:1008B0001F60444B1B689847D5E76E380728F5D86A
:1008C00007F07CFC0EF4F4F410F412166628EDD157
:1008D0000C2300E008232B7002230135FF18CAE720
:1008E0000A23F8E70D23F6E70923F4E72870F3E776
:1008F000F31B052BDADDB81CFFF778FF8022324BA3
:100900000400C318D2009342D0D30028CED02F4980
:100910004318934224D2BB1DF31A052BC6DDBB79C5
:100920005C2BC3D1FB79752BC0D138000830FFF7A1
:100930005DFF8022244BD200C3189342B6D2244BD1
:10094000A4021C4080238005800D5B020443E41850
:100950000C233F221440BF3A1443EC70843212E05F
:100960007F280DD980231B01984216D380235B0278
:1009700098420AD388235B03984297D20623E8E77C
:10098000062301222870AD18A8E73F231C40BF3B77
:100990001C430322AC708633F5E73F231C40BF3B6A
:1009A0001C4302226C708633EDE70422701AD31ABE
:1009B000C018084B1B689847051E019000D05AE7E5
:1009C00051E7C046C00002080024FFFF0028FFFFD7
:1009D00000FC0F00C4000208002803D00378013B8C
:1009E0001F2B00D970470130F6E70000064B10B509
:1009F00028201B689847041E03D02822002108F0F5
:100A0000DBFF200010BDC046C4000208084A0028D1
:100A100003D1084B1360084B07E00368002B00D19B
:100A2000044B13604368002BF5D0044A13607047F1
:100A3000C4000208F197001005980010C0000208D9
:100A4000F8B5802604007600002C00D1F8BDE368DC
:100A50002768104D334206D1A068002812D12069C2
:100A60002B68002814D18022E3689200134204D13D
:100A7000206A002801D02B68984720002B689847EF
:100A80003C00E1E7FFF7DCFFE3683342E7D0EAE749
:100A90009847E8E7C0000208F0B505000F0016000F
:100AA00085B0002901D1002413E0042238006149F7
:100AB00008F04EFF002803D10223EB603C1D08E044
:100AC000052238005C4908F043FF002804D1E860A3
:100AD0007C1D200005B0F0BD04223800574908F005
:100AE00037FF002806D101230122EB600023AA6111
:100AF000EB61E3E73B78222B06D132003900280076
:100B0000FFF796FE0400E4E72D2B03D01A00303ADD
:100B1000092A0ED800260A22380003A9039608F0F5
:100B200031FE039CA742BED00423A861E961EB60BB
:100B3000CFE75B2B31D1781CFFF74EFF0378040021
:100B40005D2B22D00027013C00970197FFF74EFF55
:100B5000009B071E68D0002B15D0019B18604360D6
:100B6000601CFFF739FF320001003800FFF794FFE7
:100B7000FFF732FF041E3BD003782C2BE5D05D2B12
:100B800005D0346034E00090EAE70023009310239E
:100B9000EB60009B0134AB609BE77B2B48D1781C5A
:100BA000FFF71AFF037804007D2B3AD00027013CA1
:100BB00000970197FFF71AFF009B071E34D0002B08
:100BC0001AD0019B18604360601CFFF705FF3200DC
:100BD00001003800FFF72CFEFFF7FEFE002807D0CB
:100BE0003B693B6200233B6103783A2B06D03060BF
:100BF0000098FFF725FF56E70090E5E70130FFF783
:100C0000EBFE320001003800FFF746FFFFF7E4FE7D
:100C1000041EEDD003782C2BCBD07D2BB1D120231B
:100C2000B6E700230093FAE7002B00D13BE7DFE7AC
:100C3000376038E7179B00101C9B0010229B0010A8
:100C4000F7B504000E000F1E019200D1144FFFF7FC
:100C5000CDFE002305003B6098420DD02000FFF739
:100C6000BBFE3A0001002800FFF716FF041E05D165
:100C70002800FFF7E5FE00252800FEBD019B002BA4
:100C80000AD0FFF7A9FE03780400002B04D0280047
:100C9000FFF7D6FE3C60EEE7002EEDD03460EBE7C8
:100CA00074050208002210B51100FFF7C9FF10BD3E
:100CB000802233B5450AFFB06D0204002900684662
:100CC000920008F08BFD01236A46E405E40D6946B5
:100CD0002800135501F06CFC7FB036BD10B51839F3
:100CE0000B5C0A180020012B02D01000FFF7E0FF78
:100CF00010BD0000F0B58DB01D0015AB1B780E00C7
:100D000003930023170005A906AA0593069300F094
:100D100046F9041E4CD12F4B3200009306993B003C
:100D20000598FFF773FC002851DD0C22210009A86B
:100D300008F042FE022008AA07A9FF300794089491
:100D400000F07EFF002802D06524644230E02900D4
:100D5000079800F047FE0028F6D1033008AA07A93B
:100D6000FF3000F06DFF0028EED11299079800F0D7
:100D7000D5FD041E1CD1300009A900F028F9041E7D
:100D800016D112990A9800F025FD041E10D12900F1
:100D9000039A0B9800F03AF9041E06D1139B0998A8
:100DA000002B08D1149B002B0CD10998FFF748FEAB
:100DB00020000DB0F0BD139900F008FC0028F1D020
:100DC0000400F2E71499099800F0CEFCF8E7142427
:100DD000BBE7C046005F2D00F0B58BB0059310ABAC
:100DE000049204CB0F001B7806920793002309AAF4
:100DF00008A906000893099300F0D1F8041E23D136
:100E0000099800F06DF8040008F0F2FC051E21D0EE
:100E1000124B02000093099923000898FFF7F6FB94
:100E2000002814DD079B22000393069B29000293F0
:100E3000059B30000193049B00933B00FFF75AFF92
:100E40000400280008F0DEFC20000BB0F0BD1424E4
:100E50006442F6E764246442F6E7C046005F2D0072
:100E600010B504000B48210008F098FC00239842BC
:100E70000DD02100084808F091FC0123002806D07D
:100E80002100064808F08AFC4342584143001800FC
:100E900010BDC046279B0010309B0010389B0010EF
:100EA00010B504000B48210008F078FC002398429C
:100EB0000DD02100084808F071FC0123002806D05D
:100EC0002100064808F06AFC4342584143001800DC
:100ED00010BDC046409B0010499B0010559B001060
:100EE000032358438008984304307047F7B50D003A
:100EF000002821D000291FD0C3680860202B1ED1F4
:100F0000104B8468104F0193002C01D12000FEBDCE
:100F1000266A002E06D03100019808F03FFC002818
:100F200002D16C602468EFE73100380008F036FC2D
:100F30000028F7D1AC60F5E701204042E7E7022046
:100F4000FBE7C0465A9B0010609B0010F0B50600FE
:100F50000C00002591B001AF002C02D1200011B08F
:100F6000F0BD216A002904D0300008F017FC0028E9
:100F7000F4D0A368002B06D00E2D0ED8AA00D451B1
:100F800001351C00E8E72468002CEAD1002DE5D0EB
:100F9000013DAB00DB591C68F6E70024DEE7F8B53D
:100FA0000D002E21160008F00BFC041E0CD0471C6F
:100FB0002E21380008F004FC002805D0001B013861
:100FC000306000202F60F8BD16204042FBE770B56E
:100FD000050000200C00FFF719FD2800FFF762FE56
:100FE000002803D02100FFF781FF70BD052040429B
:100FF000FBE70200042300200130002901D19A42BE
:1010000003D95B001D28F7D102307047F0B5C84BFB
:1010100089B00F00010018000692FFF797FF002823
:1010200000D18EE283680193029300231E00059392
:101030000493029B002B73D1019BDB68202B00D013
:1010400080E2019DBB4B290018000293FFF77EFF51
:10105000041E00D1F0E08369069ADBB2934200D00F
:10106000EAE02100B448FFF771FF002800D1DDE07D
:1010700083693B702100B148FFF768FF1423002803
:1010800000D083697B602100AD48FFF75FFF01233B
:10109000002803D0C3685A1E9341DBB22100A9483F
:1010A0003B72FFF753FF002800D1C2E08369FB6069
:1010B00000232100A4487B76FFF748FF002808D0D2
:1010C000A24B0169180008F069FB002801D1012337
:1010D0007B763B007A7E49331A70002E00D031E2D5
:1010E000019D29000298FFF731FF002800D1A8E0F8
:1010F00083693A78DBB29A4200D0A2E02900944892
:10110000FFF724FF0123041E029300D1A0E08269AF
:101110002F33541E6343FB181A760223029397E081
:101120008C480299FFF712FF002802D08568002D35
:1011300003D1029B1B6802937BE729008648FFF7D7
:1011400005FF00284FD0002403690393834B0793C6
:10115000079AA3009958039808F020FB002800D1B3
:10116000F3E10134042CF3D100247D4B0793079A5B
:10117000A3009958039808F011FB061E05D001340E
:10118000172CF4D10526183C764229007548FFF744
:10119000DDFE002801D08369059329007248FFF71E
:1011A000D5FE002804D0C1698069FFF722FF0490B2
:1011B000631C18D0049B002B15DDA9226300FB18CB
:1011C00052009A5C012A04D1220005990E32D20005
:1011D000D1515422FF329B5C012B04D10E34049B6D
:1011E000E4003C1963602D68A1E76049039808F0AA
:1011F000D5FA0028F7D129005A48FFF7A7FE0028A2
:1012000006D0A2235B00FB5C012B01D18369BB6686
:1012100029005548FFF79AFE0028E4D04623FF3303
:10122000FB5C012BDFD18369FB66DCE7012676429C
:1012300020E7FA231B013AE72D68002D00D001E7D3
:101240004BE72D68002D00D04BE701232C000293C3
:10125000002D00D096E029004548FFF777FE0028D2
:1012600000D0FDE029004348FFF770FE00280ED0B3
:101270000D236343FB182A33FF331B78012B06D160
:10128000C2682F33511E8A416343FB185A702900EC
:101290003948FFF75BFE00280ED00D236343FB188F
:1012A0002C33FF331B78012B06D1C2682F33511E1C
:1012B0008A416343FB181A7429003048FFF746FE41
:1012C00000280CD00D236343FB182C33FF331B780D
:1012D000012B04D12F3363438269FB189A742900D0
:1012E0002748FFF733FE002800D1C9E0C368102B60
:1012F00000D0C5E00D228168380062433530FF30F0
:1013000013008018232262433233FF33063AFB185E
:10131000FF3A002900D1B3E01E78012E01D18E6979
:101320009E540133834200D1AAE00968F1E7C04628
:10133000409B0010589C0010D79B0010DE9B0010B3
:10134000E69B0010F19B0010FD9B00100A9C001012
:101350000F9C0010B89B00106D9B00102401020828
:10136000C8000208C29B0010CA9B0010CF9B00104F
:101370001B9C0010659B0010329C00103A9C0010D2
:10138000499C001029008348FFF7E0FD002800D1A8
:1013900061E78668002E00D15DE731007E48FFF7E7
:1013A000D5FD00282DD003697C491800039308F06F
:1013B000F5F9002827D131007948FFF7C7FD00284B
:1013C0000CD00D236343FB182E33FF331B78012B06
:1013D00004D12F3363438269FB18DA61310071480D
:1013E000FFF7B4FD00280CD00D236343FB182F3307
:1013F000FF331B78012B04D12F3363438269FB1821
:101400001A623668C6E76849039808F0C7F90028E9
:10141000F7D131006248FFF799FD00280CD00D2369
:101420006343FB183033FF331B78012B04D12F3378
:1014300063438269FB185A6231005A48FFF786FD00
:101440000028DED00D236343FB183033FF331B78B5
:10145000012BD6D12F3363438269FB189A62D0E700
:101460000D236343FB182D33FF331B78012B00D072
:10147000F8E62F3363438269FB18D2B25A61F1E672
:1014800029004A48FFF762FD031E01D08369DBB2E1
:1014900030226243BA18937029004548FFF756FD81
:1014A0000123002805D0C269836913435A1E934162
:1014B000DBB230226243BA185374002C1DD12900CC
:1014C0003C48FFF743FD1423002800D083697B6369
:1014D00029003948FFF73AFD031E03D0C3685A1E9E
:1014E0009341DBB23A003832290034481370FFF7D9
:1014F0002DFD00281ED08369FB63029B012B20D0A9
:10150000019D29002E48FFF721FD002815D0826992
:10151000D3B2022B11D13026541E6643BA192900CA
:1015200028481376FFF712FD002801D08369F35590
:101530000123F3E5FA231B01DEE72D68002DE0D13E
:10154000F6E70026300009B0F0BD1F49039808F007
:1015500025F9002800D048E629001148FFF7F6FCDD
:10156000002806D0A1235B00FB5C012B01D183691D
:101570003B6629000B48FFF7E9FC002800D132E662
:101580004423FF33FB5C012B00D02CE683697B6690
:1015900029E6C046B89B00106D9B0010259C0010EA
:1015A000C29B0010CA9B00102A9C0010539C001084
:1015B0005B9C0010DE9B0010E69B0010F19B00106E
:1015C0000F9C0010589C0010669C001070B5514B89
:1015D000BAB00400029308000B1D04934E4B0C306C
:1015E000059301230A904D480A000B90C8180D90EE
:1015F0004B4808320E90080010301090494807926E
:1016000011900800143013904748484A149008007D
:1016100018301690464800251790080008920222BC
:101620001C300191069309920C9312931593039524
:101630000F95189319903F481B931A90080020307B
:101640001C903D481E921D90080024301F903B487E
:10165000219220900800283022903948249323902A
:1016600008002C302590374827932690881828901A
:10167000354830922990C81C2B9034482A952C90DC
:10168000080030302E9032482D952F9008003430CD
:10169000319033920A00383234922E4A2E483592D5
:1016A0003C312E4A329037912D48210036933892A2
:1016B0003993FFF74BFC0600A8421ED08368AB426B
:1016C0001BD001AC31006068FFF740FC002810D04F
:1016D000C268042A0DD1A268012A11D0022A13D0AF
:1016E000002A06D18269C369216813435A1E9341B7
:1016F0000B7001350C34132DE4D100203AB070BDCD
:10170000226883691360F4E783691649DB01226864
:101710005B18F7E7779C0010849C00109C9C0010DD
:10172000A99C0010B39C0010BD9C0010919C00105F
:10173000C59C0010CC9C0010DA9C0010E49C0010AA
:10174000EF9C0010FB9C0010089D0010129D0010E3
:101750001F9D0010349D0010299D0010409D001019
:101760004D9D001000003240F8B5174B0D000100F0
:101770001800FFF7EBFB011E08D08368002B05D093
:101780001248FFF7E3FB0400002C01D10020F8BD54
:10179000A4680F4FA1683800FFF7D8FB2E0000287F
:1017A000F2D0C368042BEFD183692A1D336003682C
:1017B00024689B6921007360D36F38000133D367BD
:1017C000FFF7C4FB0836EAE7549D0010609D001047
:1017D000669D0010174B70B50C0001001800FFF754
:1017E000B5FB051E24D029001348FFF7AFFB0028E6
:1017F00006D0E378012B03D10069FFF731FB20709D
:1018000029000E48FFF7A2FB002806D02379012B00
:1018100003D10069FFF744FB607029000848FFF717
:1018200095FB002804D06379012B01D18369A37053
:10183000002070BD6F9D0010729D00107D9D0010F6
:10184000859D001070B504000D0086B000211422A3
:1018500001A808F0B1F829002000FFF777FB040089
:10186000002C18D021001C48FFF770FB0028F7D08F
:101870000569002D0AD0194E2900300007F08EFFAF
:1018800000280BD1310001A807F092FF210001A828
:10189000FFF75CFB0400200006B070BD104E29006D
:1018A000300007F07BFF0028ECD029000D4807F03E
:1018B00075FF0028E6D00C4E2900300007F06EFFBF
:1018C0000028DFD02900094807F068FF0028DDD193
:1018D00021000748C1E7C0466D9B0010959B001092
:1018E0007E9B0010859B00108D9B0010729B00104A
:1018F000789B001010B5FFF729FB0124002809D0C0
:101900008168002906D00448FFF720FB002801D099
:10191000C468E4B2200010BD899D0010F7B5040032
:1019200000200D00FFF772F82000FFF7BBF9071E3B
:101930004DD039002748FFF709FB041E06D10126C8
:1019400076423800FFF77CF83000FEBD224E0100E1
:101950003000FFF777FF210000903000FFF7CAFF4B
:10196000009B0600002B2CD01869FFF779FAEE7067
:1019700000262870194B210018000193FFF762FF21
:10198000210000900198FFF7B5FF009B0190002B0C
:101990001AD01869FFF784FA019B68702B71104BFD
:1019A000210018000193FFF74DFF210000900198DE
:1019B000FFF7A0FF009B002BC1D09B696871AB7043
:1019C000BFE701267642D5E701267642E7E70526FE
:1019D0007642B9E76F9D0010729D00107D9D00104A
:1019E000859D0010F0B5050085B000200C00FFF7C4
:1019F0000DF82800FFF756F9031E019000D108E109
:101A000019008648FFF7A2FA051E00D1FDE0844FB9
:101A100001003800FFF716FF290006003800FFF725
:101A200069FF002E00D1D4E09422B3695200DBB2EA
:101A30002370A0542200303213703623FF33E05459
:101A40000023784F290038000093FFF7FBFE2900A0
:101A500006003800FFF74EFF002E00D1BCE0F3680F
:101A60005A1E93412A22DBB2FF326370A054220037
:101A7000313213709B235B00E0546B4F2900380018
:101A8000FFF7E0FE290006003800FFF733FF002EC5
:101A900000D1A5E0F3685A1E93412C22DBB2FF323D
:101AA0002374A0542200403213709C235B00E05446
:101AB0005E4F29003800FFF7C5FE290006003800F8
:101AC000FFF718FF002E00D18EE09622B369520076
:101AD000DBB26361A05463643A23FF33E054544E95
:101AE00029003000FFF7AEFE290007003000FFF7A5
:101AF00001FF0500002F00D17AE02000BE6903221B
:101B0000F6B231002C3007F057FF200032300322AC
:101B10002900FF3007F050FF2000032231005C3025
:101B200007F04AFF20003F3003222900FF3007F072
:101B300043FF40480199FFF709FA0600002F64D0DF
:101B40002E230122FF33E2540220230098213A4F32
:101B5000FE33FF304900188662549887D8873100D9
:101B60003800FFF76FFE310005003800FFF7C2FEB6
:101B70000390002D40D0AB690293304F3100380004
:101B8000FFF760FE310005003800FFF7B3FE002DBF
:101B900037D0AD69230021002200533381317032E8
:101BA000FF33FF31029E55601660039E58701E7011
:101BB000023308328B42F5D1A12302225B00FF32AF
:101BC000E25202330198E252FEF73AFF009805B064
:101BD000F0BD01235B4234E701235B4200934CE7F5
:101BE00001235B42009363E701235B42009376E7A6
:101BF00001235B4200939CE701235B420295009323
:101C0000BBE701235B420093C4E701235B420093DF
:101C1000D2E705235B420093D8E7C046409B001003
:101C2000589C0010659B0010329C00101B9C0010FB
:101C3000499C0010B89B0010C29B0010CA9B00106A
:101C4000DC23F0B59B0585B00093002302AD019520
:101C500002901848184C06686B60306A0768002FBD
:101C600007DBA34203D10120404205B0F0BD0133A0
:101C7000F4E7A342F7D06B46C3600123BC36836010
:101C80003368C01800230668002E03DAA342EAD0A6
:101C90000133F8E7A342E6D0A02300981B06984240
:101CA00001D00098E1E7029B002013606B680B6095
:101CB000DBE7C04680050208983A00000122F0B533
:101CC0000024184B0668196832400B6ABC310D6855
:101CD00015495D191F68002F06DB8C4202D10120D7
:101CE0004042F0BD0134F5E78C42F8D0002A00D123
:101CF00006000120DE60986000202C68002C03DACA
:101D00008842ECD00130F8E78842E8D0DB68002A4E
:101D100000D11B68A022002012069342E1D01800D7
:101D2000DFE7C04680050208983A00000A4B37B545
:101D30001B780500013B0024012B05D8074B01A8A7
:101D40000193FFF7BBFF0400002D02D0280005F02F
:101D50009FF920003EBDC046F40D02080101013A82
:101D600007B5034B01A80193FFF7A8FF0EBDC046BE
:101D70000101003210B5FFF7F3FF002801D107F091
:101D8000A3FE10BDF8B5040008001500FFF7CEFF54
:101D90001D4B1B68002B20DAB0261C4B1C4FB600D5
:101DA000BB511C4B1B68190098311A6809685218FE
:101DB0001068194908401949014311601A0090320E
:101DC00012681B689B18102219681142FCD0012070
:101DD00005F05EF9BC51FFF7CDFF002D0CD006F0E9
:101DE0008FF8C02201230E495200885803438B50BC
:101DF00006F0C2F806F06CF8200006F0B5F90020F5
:101E000005F0F8FCFBE7C046000126400040001644
:101E10000000214080050208FCFF00000300FA05D5
:101E200000002640C0220123044910B55200885802
:101E300003438B5006F0A0F810BDC04600002640BA
:101E4000F8B5294B421E05009A4249D8274B1A780B
:101E5000002A45D10124264F1C703B78254E002BCB
:101E600007D1FFF7DFFFE122D200B358A343B350FD
:101E70003C70C02201215200B35800248B43B35060
:101E80001D4B1D801D4B1A005988A94222D8A30062
:101E9000D35A9D4200D21D00194B20001C7006F041
:101EA00053F8C22328005B00F65807F019FA154AC8
:101EB000154B06F06FFB06F083FA11220123121B6B
:101EC00093408019C01A80B206F02CF8FFF7AAFFE1
:101ED0000020F8BD013404330D2CD5D1013CDBE7E3
:101EE00001204042F5E7C0466F1700007C0502085C
:101EF0007D050208000026407A050208B89E001001
:101F00007805020833DFC14F1C409F3FC0220120EB
:101F1000044952008B5883438B500022024B1A70A5
:101F20007047C046000026407C050208C022012000
:101F3000024952008B5883438B5070470000264063
:101F4000014B18607047C04680050208F8B5802331
:101F5000FA270E0001251B020C4C18430004E06117
:101F6000BF00236C2B4208D1002F01D108480CE0A0
:101F70002800013F05F0A4F8F3E7002FF6D0002079
:101F8000236C1D432564E36A3380F8BD00003C40A8
:101F90000400160070B5FA2601240C4D0004084315
:101FA000E861B6002B6C234208D1002E01D108480D
:101FB0000AE02000013E05F083F8F3E7002EF6D09A
:101FC00000202B6C1C432C6470BDC04600003C40BC
:101FD0000400160010230449044A885803438B5018
:101FE0000022034B1A60704700003C4070F0010073
:101FF000BC0F0208F0B51B4B9DB001A90A001800E8
:1020000070C870C270C870C270C870C214001A0064
:1020100020002432E0CAE0C0E0CAE0C0E0CAE0C06C
:10202000020048330500C1CBC1C2C1CBC1C2C1CB84
:10203000C1C20D4E336898690130FF3000F0EEFAEE
:102040003368210098698130FF3000F0E7FA336887
:102050002900986980239B00C01800F0DFFA1DB0AA
:10206000F0BDC046AC9F001080050208F0B589B0F5
:1020700003930EAB1B780490009105920293012804
:1020800000D993E1032900D990E1039B0C3B872BF6
:1020900000D98BE1FB2A00D988E105F0E1FE002898
:1020A00001D005F071FA0123C14FC24D7A591A428D
:1020B00004D0C14ABA581A4200D0CDE1FFF79AFFC6
:1020C000BE4BBF4AFA50A023039A1B031343BD4AD9
:1020D000BB50BD4BBD4AFA50BD4B5A6801231A4252
:1020E00000D0BBE1BB4ABA5812073ED53A68BA499C
:1020F0005B030B431A433A6005F0ACFC002843D065
:10210000029B002B40D10320012105F0DDFC0120C2
:1021100005F00AFD7E59B14B402033437B5104F05A
:10212000CFFF0123AE4C3A591A4208D140203B510F
:1021300004F0C6FF032340203B5104F0C1FFA94B2C
:10214000A94C1E4001963443FA267C51F600A74B59
:102150001B689A69A64BD358102213421FD1002E38
:1021600018D1A44C200009B0F0BD04F0EDFEA24946
:10217000884202D83A68A14BBCE706F047F83A68B3
:10218000431E0128F7D0B2E703239D4AB9580B43F9
:10219000BB50BFE70120013E04F092FFD7E7002EBD
:1021A000DFD00823974A0120B9580B43BB5005F0F4
:1021B0007BF9002802D0029B012B02D1924C019B9B
:1021C0001C430126914B1C4034437C51904C7A4B6C
:1021D000FB58334206D1002CC3D03000013C04F040
:1021E0006FFFF4E7002CBCD00B26C02189484901C1
:1021F000FFF7D0FE041E05D106AB8648991DFFF7F8
:10220000A5FE0400013E002E5FD17A4C05F00AF8CD
:10221000212842D0B027804E7F05BB5B002B3CD0ED
:10222000002C9FD106AB9D1D29007C48FFF78EFE38
:10223000041E00D096E7B95B288860344908A043A3
:10224000214001437648BA5B0140F020D201C00032
:1022500002401143734ABB5B1140C022DB005201B4
:10226000134019436D482980FFF794FE041E00D0E7
:1022700078E729006C48FFF769FE041E00D071E77B
:10228000FF23C022B95B68480909890119402B88DE
:1022900093431943FFF77EFE0400002C00D061E752
:1022A000059B62495B001943614889B2FFF772FEE2
:1022B000041E04D15F496048FFF76CFE0400039BD5
:1022C000580180B204F0FCFE4CE7002C9ED1C022E5
:1022D00006AB9D1D2B885201934200D085E7290053
:1022E0005648FFF733FE041E90D180262B88F60057
:1022F000334232D029005248FFF728FE041E00D096
:1023000084E76A4612882B880292049A012A40D1F7
:102310000099013216000190012904D802990E009B
:10232000521A92B201923F22702193431943454BB6
:10233000009A3143D340444A41481360FFF72AFED4
:102340000322029B04009B1B1340019A96001E432C
:102350003E4BB6B22E80FE5058E70B23019331005E
:102360003648FFF717FE041E04D129003348FFF753
:10237000EDFD0400019B013B0193002B00D144E7DC
:10238000002C00D042E780222B88D2009342E6D175
:10239000B0E7009A01260190002A01D10196009E23
:1023A0007F22102193431943294BC1E7294CD9E6D9
:1023B00000003C40A0F00100B4F00100A4F00100D6
:1023C00006000001A8F00100ACF0010001000100CE
:1023D000FC003C4070F00100041A00803000030053
:1023E000B0F00100EFFFFEFF2000020080050208B0
:1023F000104000000400160000093D00040A00809F
:10240000C4F0010068F0010028000200FFFFFBFF9C
:10241000F07E0E00021E000016180000071E0000CD
:102420007FF5FFFFFFE7FFFF061E00000110000021
:10243000081E0000376800000F1E0000031E000089
:10244000091E00000048E801BC0F020864F001000A
:102450000024F40001001600014C83E6014C81E6E3
:102460000300160002001600044B1B681A00BA3263
:1024700012881B6A5043C0187047C0468005020886
:10248000A02300B51B06984226D015D8802825D059
:102490000AD8102824D0402824D000280BD0154872
:1024A00009E0A420C00306E08022134B52009042B2
:1024B0001CD09842F3D100BD104B984218D0104B5D
:1024C000C0180428EBD805F079FEECEA0F030500EC
:1024D0000C48F0E70C48EEE70020ECE70B48EAE791
:1024E0000B48E8E70B48E6E70B48E4E71800E2E7AB
:1024F000A020D7E7FF00520006005200090000A00C
:10250000FFFFFF0F020052000300520005005200BF
:1025100001005000020050000100520010B50020E0
:10252000FFF7A2FF0A4B1C682300BC331B68C018CE
:102530000368002B0ADB074B1868FFF7A1FF012295
:1025400063689A609A68002AFCD110BD0248FCE7D3
:102550008005020884050208020050000D4B10B5EA
:102560001860002804D0FE235B42038000234380D0
:10257000094B1B681A0050321278002A08D05133D8
:102580001B78002B04D002220020044900F0A6F999
:1025900010BDC0469405020880050208B901020872
:1025A00010B50248FFF7DAFF10BDC0460000000872
:1025B000C30570B505000C00DE0D002B20D10029ED
:1025C0001ED005F071FD0F4B0F4A1A605E609D60D2
:1025D000DC600E4B1B685233197800290BD004F0D5
:1025E000C0FCFA21890005F011FE0100084805F041
:1025F0000DFE084BC1188020400007F04DFA70BD59
:102600000548FCE784050208000100058005020872
:10261000C0EA2101482600000600520030B500281B
:1026200030D000292ED0184BCD681A6893695469B0
:10263000C31ADB091B011B191400813424782418E8
:1026400025601400823424780D6924182560140054
:10265000833424784D69241825601400803424784C
:102660008D68241825604C688432846112788C69E6
:1026700012181460CA691A600A6A5A600B6803600B
:10268000002030BD0148FCE78005020801005A0027
:102690000E4B10B51C68A369C31ADB0960691B01E6
:1026A0001B181F200240032907D8C90088408A4010
:1026B0001C68844322431A6010BD0439C900884055
:1026C0008A405C68844322435A60F5E7800502082B
:1026D000F8B51E0006AB15001A7807000C00FFF7CE
:1026E000D7FF01221100A1403B6816408B430F2108
:1026F0000800A640A400A0400D40A5401E43054B85
:102700003E601B6881331A78BA18136883431D43EF
:102710001560F8BD80050208064B1B68BC331B68BA
:10272000C3181B68002B03DA89B241600020704790
:102730000148FCE78005020801008A000368002BBD
:1027400004DA89B2C2608160002070470048FCE76B
:1027500001008A00064B1B68BC331B68C3181B684A
:10276000002B03DAC36800200B6070470148FCE7C8
:102770008005020801008A00024B1A68002A00D175
:102780001860704798050208F0B52C24154E444394
:1027900030681F000019FF241E0A26402740124CF3
:1027A0001B0C256807602C6A46608360BA352D884B
:1027B0006F433F190761370080377F01E7190B4DE1
:1027C00076014761A4191F043B4364192360002369
:1027D0008361059BC2610162002B01D01B8883814C
:1027E000F0BDC046980502088005020808100000E8
:1027F000F0B504000026236987B00268276A4168A3
:102800000293A36804AD03971932676AC0682B80EE
:10281000AA70029BA26AEE7005910095E16AFFF72B
:10282000B3FF3B003200310003980096FFF7ACFF86
:102830002800216B04F0E2FB0022AB5EB34206DB12
:102840001F2213401E3A9A401300024A136007B039
:10285000F0BDC04600E100E0F0B585B003931B4B2E
:1028600016001C682C2358434B4320180769E418B2
:10287000002F27D0A569002D26D13B68002B23DA35
:10288000134B1B6834331B780193436801996068CC
:10289000029305F041FD01228A40336812049BB285
:1028A000134333600123FE60A361039B01996362BC
:1028B000029805F031FD01238B409BB2BB602800DC
:1028C00005B0F0BD034DFAE7034DF8E7980502089F
:1028D0008005020804028A0007028A002C2310B532
:1028E0004343064C2068C018C369934204D9036A65
:1028F00000209200D15010BD0148FCE79805020865
:102900000A028A0073B5002642690400D568019660
:102910002B0CB34221D01B0413601368194B0069C0
:102920001B68BC331B68C3181B68B34215DA01A9C6
:10293000FFF710FFB0420CD10198E26903681E0C4A
:10294000DBB29A4205D9226A9B009B58002B00D02B
:10295000984731002069FFF7DFFEADB2002D09D0A6
:1029600063691D6000251B68636AAB4205D0984708
:102970006562A56163691B6873BDA36A002BF8D00B
:102980009847F6E7800502082C2310B54343034A15
:102990001068C018FFF7B6FF10BDC04698050208C2
:1029A0001A4B70B51A680C00130033331B7883423E
:1029B0002AD9002928D00D681F212B000B400D4279
:1029C00022D11100BA310988126A48431900104D0A
:1029D0008018286022685209934210D30021FFF723
:1029E0009BFE002122002868FFF7A8FE011E04D1EB
:1029F0002868FFF791FE002800D0064870BD626885
:102A00009E00B1500133E5E70348F7E7800502086F
:102A10009C05020801018A0003018A000B0010B521
:102A2000002A0DD1002914D10B4A0C4C11680A0060
:102A3000BA321288096A424352182260180010BD47
:102A4000002906D006490B604A60FFF7A9FF030082
:102A5000F4E7044BF2E7C046800502089C05020833
:102A60000400000803018A00F7B51B4F04003B680F
:102A70000E00002B2BD0DB681A68824229D9002572
:102A80005B680193A94202D1FDF76FFD050038682C
:102A90000368002B19DA1F23012223409A4064099E
:102AA000019BA4001C1921680A420CD091432160AB
:102AB00000240021FFF730FE002E02D12800FDF790
:102AC00058FD2000FEBD054CF3E7054CF4E7034C30
:102AD000F7E7044CF5E7C0469C05020802018800B0
:102AE0000301880004018A000C4B1B68002B11D0E5
:102AF000DB681A6882420FD959681F2342091840BF
:102B00001E3B8340920050581840431E9841044B8E
:102B1000C01870470348FCE70348FAE79C05020821
:102B2000000188000201880004018A0070B5962126
:102B3000002004F019FB0021080003F063FA44426E
:102B400044412E4B64421C402D4B05000020E418EC
:102B500003F0B6F9012003F08FF9002003F068F8C4
:102B600005F0A2FA274E33683F331B78002B03D0C1
:102B7000012003F049FE0500002D00D0224C3368EF
:102B80003F331B78012B03D9022003F03DFE0500E3
:102B9000002D00D01D4C0021012003F073FC002803
:102BA00000D01B4C002003F023FA051E0ED103F0C9
:102BB0009FFC1223FF33984208D10121280003F023
:102BC000EFF9002800D00E4C05F06EFA03F0F2FC8D
:102BD000002800D00F4C0021080003F053FC00280F
:102BE00000D00D4C0021080003F0DAF9002800D0D5
:102BF000034CFFF7EFF9200070BDC046F1F0E5FE91
:102C00000F0F1A01800502082F0F1A012E0F1A014B
:102C10004E0F1A013F0F1A014F0F1A01F0B5464B24
:102C2000C600002900D17AE0072A00D977E00D001C
:102C30009C1923005435196004310833A942FAD194
:102C4000012393403D49636089194B603C4903254A
:102C500089194B603B49384F89194B603A498919AA
:102C60004B603A4989194B60394989194B60394998
:102C700089194B60384989194B6051000E0037495A
:102C8000B5400C6892002100803109780231890832
:102C90000918C900C9194D600F25210095408131DF
:102CA0000978023189080918C900C9194D60350031
:102CB0001035AC4621006646032582310978B540BF
:102CC000023189080918C900C9194B6021008331F4
:102CD00009782B43023189080918C900C9194B60CA
:102CE000FE2301259B001A40511C8D40290001251F
:102CF00084342378032602339B081B18901C8540DC
:102D00002943012595400D43D11C8E4007210532F2
:102D10009140DB002E43DB190E435E60F0BD0022C4
:102D2000012110009B194942013218605960083393
:102D3000152AF9D1F2E7C046A4050208AC0502083D
:102D4000B4050208BC050208C4050208CC05020847
:102D5000D4050208DC050208E40502088005020823
:102D6000C300013030B580B2124CC0001B190019ED
:102D7000002901D0072A06D90122002152421960F8
:102D80005A6006C030BD0C4C2468A5696469491BB3
:102D9000C909090109191960043101601F21032AB9
:102DA00003D8D20091405960ECE7043AD200914038
:102DB0004160E7E7A405020880050208C20001306F
:102DC0000D4B80B2C00010B5D218C01800290ED02B
:102DD0000A4B1C680B00A16980335B1A61690024EF
:102DE000DB091B015B18191D18C212C010BD01249C
:102DF0000B006442F8E7C046A405020880050208FB
:102E0000F0B50024070000882500013885B00928A6
:102E100000D930E105F0F0F941000A0027004E002A
:102E2000DD0026012E0350005C00A0007D88B14A21
:102E3000E90053185B68F8681C00044003420FD196
:102E40005E1C0DD09C2D0BD88A58002A08D0BD6876
:102E500011682B431940014311607C6005B0F0BD3F
:102E6000A54B7B60FAE77888A24BC20099184968A5
:102E70004C1CF5D09C28F3D8D0580028F0D0BB6863
:102E800002680B4203D01C0054402142E8D10A40A2
:102E90001343036000237B60E0E77B889C2BDFD833
:102EA000944ADB009B58002BDAD01B68BB600023E0
:102EB0007B60D3E77C60D1E7BB68022B05D1FB6860
:102EC000282B02D100237B60C8E78C4B7B60C5E7D1
:102ED000BB68002B00D140E2FA68052A00D93CE229
:102EE00000227A60864A1268002A05D11A60DA60E8
:102EF0009A615A621A63B1E71178002924D0916867
:102F00001960D16859607F499960517800291DD0B6
:102F1000116AD960916A19617B495961516A996155
:102F2000D16AD961794919629178002911D0116B60
:102F30005962916B99627649D962516BD26B196370
:102F40005A63744A9A6389E71960DEE7D960996128
:102F5000EAE75962196381E7BB68002B00D17DE77E
:102F6000FA68052A00D979E7654A1268002A05D16E
:102F70001A609A601A619A611A62A3E711780029AF
:102F80001FD0916880311960932199805178002970
:102F900019D0116A8031996095219981516A8031E7
:102FA000196197219982917800290FD0116B526B8A
:102FB0008031803299611A6299219B2299839A8487
:102FC00080E71960E2E799601961ECE7996119629D
:102FD00078E7B968002900D1BFE14F4C4F4D237805
:102FE000F0220393002328007B6006F0F7FB04F037
:102FF00083F8002810D0FFF799FD78607B68002BDC
:1030000000D02BE72800237001F0D6FD786000285F
:1030100025D0039B237021E72378002BEED1EB789A
:10302000002BE8D0EB79002BE5D02B0055331B7833
:10303000029304F04FF8061E02D0394E7E60DAE7A4
:1030400003F0C2F8002805D103F0AAF8029803F0B3
:10305000E5F8F3E703F0C2F80028F5D0EDE7012327
:103060002370FBE67888712825D8652806D82C3887
:1030700083B2072B13D9204B7B60EFE666380B2811
:10308000F9D805F0AFF822005E00F8FFF8FFF8FF6E
:10309000F8FF2C01310136013F0149017D0107286C
:1030A000E9D805F09FF86400BB00E8FFA801AD0176
:1030B0009B01A0019601C82800D1BDE1C928DAD141
:1030C000FEF788FF00237B60C8E6164BBA68596894
:1030D000002A2DD1144A11401B220A435A60596814
:1030E000124A1143596059681143596059680A439B
:1030F0005A60E7E6A4050208FF0F1A01F90F1A014A
:10310000040C02082000890035008B004A008D0065
:103110005F008F0074009100000C0208100B020881
:103120006F0F1A01000026400000FC0F003A0280D9
:10313000E822B648920101400A435A605A680240A8
:10314000D6E7B34B1A681300BA33198807234B43E9
:10315000126A9B181A68002AFCDA8022D968520584
:103160000A43DA6000225A605B687A6076E60024DF
:10317000A84BB1251C800293A74B802603931C808B
:1031800003F006FAED00B605002817D0200003F082
:10319000AFF9022839D1002C1CD1A04AA0495359BB
:1031A0000B40334353510021200003F06BF90123FE
:1031B000A340029A12881343029A1380944B01345D
:1031C0001B683F331B789C4200D97BE6200003F04C
:1031D00007FBD9E70320914A9249A3009B185A584C
:1031E000120F024204D05A58120F0240012A06D18F
:1031F0000122A240039800880243039802805A5893
:103200008748024032435A50CDE7002CD6D1834A3A
:10321000834953590B4033435351CFE77D4B0393BD
:103220001B88002B0FD103F0B3F9041E09D07E4C8C
:1032300042E0013D03F02AF8022806D0002DF8D123
:103240007A4C7C600AE6784DF4E7002DF8D0002631
:10325000764C0123B3409AB20292039A1288134229
:1032600019D00221300003F00DF9002E0BD03000F0
:1032700003F0C0FA002801D001F0E1F8002D0AD0D7
:10328000013DF4E7013D03F08BF9002801D001F086
:10329000C7F8002DF6D15E4B01361B683F331B7813
:1032A0009E42D6D9CDE7C0205C4980055B1899586D
:1032B00001439950EFE7013C03F072F9002802D175
:1032C000002CF8D1BCE7002CBAD0B122C02353495E
:1032D000D20088589B05034300248B50B1E704F0CB
:1032E000C1FB00237B60B9E504F00EFC00237B608A
:1032F000B4E5B868431E9841C0B204F015FC002341
:103300007B60ABE5BB681878072826D8597804F0AD
:10331000DBFB00237B60A1E5BB6859681A7A1B7848
:10332000002B1AD1C8B20F2817D801248C402600D0
:103330003F4D281DC06F02900298834213D0D800E1
:1033400028180468344219D0022A09D0032A11D05F
:10335000002A08D14368DB0705D4364B7B607DE546
:1033600043681342F9D00020786004F005FB002880
:10337000F3D173E543685B07F5D4EEE70133DBE790
:10338000BB681A78197A002AE7D104240125284B52
:10339000181DC06F824207D100207860002800D03D
:1033A0005CE504F023FBE2E7022908D003290CD0F6
:1033B000002907D15E682E4204D11E48EDE75E6801
:1033C0000E42FAD001320833E4E75E682642F9D1B2
:1033D000F3E703F073FC00237B603FE503F0A8FCF8
:1033E00000237B603AE5BB681A891888596803F0A6
:1033F00079FB786032E5B86803F02AFC78602DE547
:10340000B86802F0BFFE00237B6027E5FF00FC0FD9
:1034100080050208A0050208A20502080000264057
:10342000FFFFFFCFFC05000040420F00FA0F1A011A
:103430008C0A0208FE0F1A01B94CBD682300210056
:103440006A68DC331A60AB68E0310B60210026004B
:103450002878E43108606978E836316026002D7BF1
:10346000EC36356001260234E6770095FEF7FEFD66
:103470007860F3E4AB4B1B78002B01D100F0CCFF5C
:1034800078880838632800D9F5E504F0ABFECB0056
:10349000DE00F40020013401510168017C01F4FDDB
:1034A0009001A401B801D801270276025003140448
:1034B00030044C0468048404A004B404E704030545
:1034C0001F0533054705630577058B05B106DC0647
:1034D0000F074407A007F4FDF4FDBC07F4FDF4FD5D
:1034E000F4FDF4FDF4FDF4FDF4FDF4FDF4FDF4FD54
:1034F000F4FDF4FDF4FDF4FDF4FDF4FDF4FDF4FD44
:10350000F4FDF4FDF4FDF4FDF4FDF4FDF4FDF4FD33
:10351000F4FDF4FDF4FDF4FDF4FDF4FDF4FDF4FD23
:10352000F4FDF4FDF4FDF4FDF4FDF4FDF4FDF4FD13
:10353000F4FDF4FDF4FDF4FDF4FDF4FDF4FDF4FD03
:10354000F4FDF4FDF4FDF4FDF4FDF4FDF4FD640080
:103550007F009A00B1000223714CFF33268823803C
:10356000BB68E21CDBB22579D3775A425341237101
:10357000FB68FF2B00D1A5E4200001F01DFB786063
:10358000002800D16AE42680257167E40123644C99
:1035900026882380BB68221DDBB22579D377023BC6
:1035A0005A4253412371FB68FF2B00D18AE420006B
:1035B00001F002FB7860002800D14FE426802571DD
:1035C0004CE4574C651DEB7F267802930123237052
:1035D000EB77FB68FF2B00D174E4200001F0ECFADC
:1035E0007860002800D139E4029B2670EB7735E43F
:1035F0004B4C651DEB7F267802930123237000233B
:10360000EB77FB68FF2B00D15CE4200001F0D4FADB
:103610007860002801D1FFF721FC029B2670EB7730
:10362000FFF71CFC00233E4C65796371FB68FF2BA0
:1036300000D147E4200001F0BFFA7860002801D1F2
:10364000FFF70CFC6571FFF709FC0023344CA56EF5
:10365000667AA3666372FB68FF2B00D132E4200018
:1036600001F0AAFA7860002801D1FFF7F7FB667233
:10367000A566FFF7F3FBBB68002B24D02A4A12682B
:103680003F32127893421ED80022254C012B14D1D0
:10369000A57AA272FB68FF2B01D1FFF713FC200073
:1036A00001F08AFA7860002801D1FFF7D7FBBB68E8
:1036B000012B05D1A572FFF7D1FBE57AE272E9E7AC
:1036C000E572FFF7CBFB194B7B60FFF7C7FB0123CC
:1036D000134CE579E371FB68FF2B01D1FFF7F2FB97
:1036E000200001F069FA7860002801D1FFF7B6FBED
:1036F000E571FFF7B3FB0023094CE579E371FB6843
:10370000FF2B01D1FFF7DEFB200001F055FA7860B6
:10371000002801D1FFF7A2FBE571FFF79FFBC04630
:10372000100B0208000C020880050208BD0F1A01E8
:10373000CF48BB6804005A1E934155342578237046
:10374000FB68FF2B01D1FFF7BDFB01F035FA786074
:10375000002801D1FFF782FB2570FFF77FFB0123D3
:10376000C348441CE57FE377FB68FF2B01D1FFF7DB
:10377000A9FB01F021FA7860002801D1FFF76EFB68
:10378000E577FFF76BFB0023B948441CE57FE3773F
:10379000FB68FF2B01D1FFF795FB01F00DFA786074
:1037A000002801D1FFF75AFBE577FFF757FB01230C
:1037B000AF4C257A2372FB68FF2B01D1FFF782FB08
:1037C000200001F0F9F97860002801D1FFF746FBED
:1037D0002572FFF743FB0023A54C257A2372FB6873
:1037E000FF2B01D1FFF76EFB200001F0E5F97860B7
:1037F000002801D1FFF732FB2572FFF72FFBBB68D2
:103800009B48DBB20400013B5A42534156342578B1
:10381000237000237B60FB68FF2B01D1FFF71EFBA9
:10382000037A002B01D1FFF719FB01F0C5F978608D
:10383000002801D1FFF712FB2570FFF70FFB0024D2
:10384000B8687C60052834D80122894B04F0C0FC9C
:10385000032225282B2E5C7D5A757B68002B01D016
:10386000FFF7FCFAFB68FF2B01D1FFF7F7FA804D59
:10387000280001F0A1F97860002801D1FFF7EEFAE5
:10388000B868052801D9FFF7E9FA04F0A1FC15187A
:103890001B1E21249C7D9A75DFE7DC7DDA75DCE751
:1038A0001C7E1A76D9E75C7E5A76D6E79C7E9A769D
:1038B000D3E7704B7B60D0E76C75FFF7CFFAAC7540
:1038C000FFF7CCFAEC75FFF7C9FA2C76FFF7C6FACA
:1038D0006C76FFF7C3FAAC76FFF7C0FA0022B8683F
:1038E0007A60052833D8624B04F072FC0322252845
:1038F0002B2E5C7D5A757B68002B01D0FFF7AEFA4A
:10390000FB68FF2B01D1FFF7A9FA594D280001F000
:1039100053F97860002801D1FFF7A0FAB8680528AC
:1039200001D9FFF79BFA04F053FC16191C1F22253E
:103930009C7D9A75DFE7DC7DDA75DCE71C7E1A7604
:10394000D9E75C7E5A76D6E79C7E9A76D3E7494BD8
:1039500014007B60CFE76C75FFF780FAAC75FFF75A
:103960007DFAEC75FFF77AFA2C76FFF777FA6C762A
:10397000FFF774FAAC76FFF771FA0026BA687E603A
:103980001068052800D9A5E0394D13792A0004F004
:103990001FFC03384A5C7D8FA53214781370364AB9
:1039A0001800126802926E7D03F0A0FAA6352B78FB
:1039B0003249D84004F02AFC2F4B18607B68002B5A
:1039C00001D0FFF74BFA002E01D1FFF747FAFB6851
:1039D000FF2B01D1FFF742FA254D280001F0ECF84A
:1039E0007860002801D1FFF739FABB68186805280C
:1039F00001D9FFF733FA2B0004F0EAFB6F767D84E0
:103A00008B92AC32147813701D4A1800126802921F
:103A1000AE7D03F06BFAAD352B781849D84004F031
:103A2000F5FB174BC9E7B43214781370154A180028
:103A300012680292EE7D03F059FAB5352B780F49E2
:103A4000D84004F0E3FB0F4BB7E7BC321478137097
:103A50000D4A1800126802922E7E03F047FABD3517
:103A60002B780649D84004F0D1FB074BA5E7C046A8
:103A7000100B0208FF0F1A01B80B020840420F009A
:103A8000C00B0208C80B0208D00B0208C43214781D
:103A90001370E34A1800126802926E7E03F026FA51
:103AA000C5352B78DF49D84004F0B0FBDC4B84E708
:103AB000CC3214781370DC4A180012680292AE7E81
:103AC00003F014FACD352B78D649D84004F09EFB8C
:103AD000D54B72E7D54A7A6070E7A5331C70029B1C
:103AE000A8352B60FFF7BAF9AC331C70029BB035D8
:103AF0002B60FFF7B3F9B4331C70029BB8352B6011
:103B0000FFF7ACF9BC331C70029BC0352B60FFF78C
:103B1000A5F9C4331C70029BC8352B60FFF79EF9D2
:103B2000CC331C70029BD0352B60FFF797F9002433
:103B3000BA687C601068052800D995E0BC4B127902
:103B400004F046FB03384A5C6E80BA490D780A706F
:103B50005C7DB94AA5331878166803F0C7F9B54BF0
:103B6000B0491B78D84004F051FBB34B18607B6818
:103B7000002B01D0FFF772F9002C01D1FFF76EF98D
:103B8000FB68FF2B01D1FFF769F9A94C200001F078
:103B900013F87860002801D1FFF760F9BB68186856
:103BA000052801D9FFF75AF9230004F011FB6066DC
:103BB0006C72787EA1490D780A709C7DA04AAC3366
:103BC0001878166803F092F99C4B96491B78D840F8
:103BD00004F01CFB9A4BC9E79A490D780A70DC7D0A
:103BE000994AB4331878166803F080F9954B8D49DB
:103BF0001B78D84004F00AFB934BB7E793490D7844
:103C00000A701C7E924ABC331878166803F06EF96D
:103C10008E4B84491B78D84004F0F8FA8C4BA5E70A
:103C20008C490D780A705C7E7D4AC433187816681A
:103C300003F05CF9874B7B491B78D84004F0E6FA27
:103C4000774B93E784490D780A709C7E764ACC3393
:103C50001878166803F04AF97F4B72491B78D840F0
:103C600004F0D4FA704B81E7704B7B607FE7A6339A
:103C7000A8341D702660FFF7F1F8AD33B0341D7025
:103C80002660FFF7EBF8B533B8341D702660FFF7F8
:103C9000E5F8BD33C0341D702660FFF7DFF8C5338B
:103CA000C8341D702660FFF7D9F8CD33D0341D70AD
:103CB0002660FFF7D3F85E4CA37C25000293012316
:103CC000A2352E78A374BB682B70FB68FF2B01D143
:103CD000FFF7F8F8200000F06FFF7860002801D1AE
:103CE000FFF7BCF8029B2E70A374FFF7B7F8504C97
:103CF0002500E37CA3352E7802930123E374BB688F
:103D00002B70FB68FF2B01D1FFF7DCF8200000F0DF
:103D100053FF7860002801D1FFF7A0F8029B2E70B6
:103D2000E374FFF79BF8424C237F250002930123A5
:103D3000D6352E782377BB682B70FB68FF2B01D11B
:103D4000FFF7C0F8200000F037FF7860002801D1AD
:103D5000FFF784F8029B2E702377FFF77FF8344833
:103D6000BB680400D8342588238000237B60837FD0
:103D7000002B01D1FFF772F8FB68FF2B01D1FFF791
:103D80006DF800F019FF7860002801D1FFF766F8A0
:103D90002580FFF763F82648BB680400DA342578ED
:103DA000237000237B60837F002B01D1FFF756F83F
:103DB000FB68FF2B01D1FFF751F800F0FDFE7860A2
:103DC000002801D1FFF74AF82570FFF747F80123D3
:103DD000174CA57FA377FB68FF2B01D1FFF772F883
:103DE000200000F0E9FE7860002801D1FFF736F8E6
:103DF000A577FFF733F800230D4CA57FA377FB6869
:103E0000FF2B01D1FFF75EF8200000F0D5FE7860AF
:103E1000002801D1FFF722F8A577FFF71FF8C04669
:103E2000D80B020840420F00E00B0208FF0F1A01F6
:103E3000100B0208B60B0208B80B0208BD0B0208F3
:103E4000C00B0208C50B0208C80B0208CD0B020804
:103E5000D00B0208D50B0208DD0B0208E048BB6856
:103E60000400D4342578237000237B60C37E002BAC
:103E700001D1FEF7F3FFFB68FF2B01D1FEF7EEFF48
:103E800000F09AFE7860002801D1FEF7E7FF257068
:103E9000FEF7E4FFD248BB680400D53425782370D0
:103EA00000237B60C37E002B01D1FEF7D7FFFB68A8
:103EB000FF2B01D1FEF7D2FF00F07EFE78600028D4
:103EC00001D1FEF7CBFF2570FEF7C8FF0123C44CDC
:103ED000E57EE376FB68FF2B01D1FEF7F3FF2000C0
:103EE00000F06AFE7860002801D1FEF7B7FFE576A2
:103EF000FEF7B4FF0023BA4CE57EE376FB68FF2BA8
:103F000001D1FEF7DFFF200000F056FE78600028A8
:103F100001D1FEF7A3FFE576FEF7A0FFB04C637F6B
:103F2000250002930123D7352E786377BB682B7069
:103F3000FB68FF2B01D1FEF7C5FF200000F03CFE1F
:103F40007860002801D1FEF789FF029B2E7063770D
:103F5000FEF784FFA24B5979002903D0A14B7B6067
:103F6000FEF77CFFBA68106898625068D862906863
:103F7000D26818635A637960FEF770FF0123984C8A
:103F800065796371FB68FF2B01D1FEF79BFF200071
:103F900000F012FE7860002801D1FEF75FFF657126
:103FA000FEF75CFF0025BA687D60106805284CD8D4
:103FB0008B4B04F00DF903272E353C4319000120EB
:103FC00096311E7B0D88187393880B807B68002BBD
:103FD00001D0FEF743FFFB68FF2B01D1FEF73EFF48
:103FE0007F4C200000F0E8FDBB68786000284ED0D0
:103FF0001868052801D9FFF73EF804F0E9F82A2FE0
:1040000034393E431900012098315E7B0D88587386
:10401000DAE7190001209A319E7B0D889873D3E767
:10402000190001209C31DE7B0D88D873CCE7190084
:1040300001209E311E7C0D881874C5E719000120EF
:10404000A0315E7C0D885874BEE7674B2E007B6004
:10405000BCE7267396342580FEF700FF667398341C
:104060002580FEF7FBFEA6739A342580FEF7F6FE48
:10407000E6739C342580FEF7F1FE26749E3425807D
:10408000FEF7ECFE6674A0342580FEF7E7FE1868A4
:10409000052801D9FEF7E2FE04F09AF803203F5FFD
:1040A000758B637A002B03D0200000F0D3FCA06650
:1040B0002300A5331878002801D0FEF7CFFE02F0C8
:1040C00015FF2300A6331B784849A83499404B08B4
:1040D000181804F09BF82060FEF7C0FEA37A002BAE
:1040E00005D02100012000F0D1FC231DD86723005A
:1040F000A5331878012801D0FEF7B0FE02F0F6FED5
:104100002300A6331B783949A83499404B08181866
:1041100004F07CF82060FEF7A1FEE37A002B06D0C5
:104120002100022000F0B2FC23008C331860230031
:10413000A5331878022801D0FEF790FE02F0D6FED3
:104140002300A6331B782949A83499404B08181836
:1041500004F05CF82060FEF781FE2300A533187898
:10416000032801D0FEF77AFE02F0C0FE2300A6333A
:104170001B781E49A83499404B08181804F046F8DB
:104180002060FEF76BFE2300A5331878042801D0C9
:10419000FEF764FE02F0AAFE2300A6331B78134943
:1041A000A83499404B08181804F030F82060FEF746
:1041B00055FE2300A5331878052801D0FEF74EFEE2
:1041C00002F094FE2300A6331B780849A8349940D6
:1041D0004B08181804F01AF82060FEF73FFEC0469E
:1041E000100B0208590F1A01FF0F1A0140420F006D
:1041F000BA689E4B1168D9661900908870310880A2
:1042000019009079723108701900D07973310870F3
:1042100019001089743108801900907A763108707D
:104220001900D07A773108701900908978310880A8
:104230001900907B7A310870128A7C331A8000232F
:104240007B60FEF70BFE894C657A002D03D0884B0E
:104250007B60FEF703FE01232000637200F0FAFB8F
:10426000FB68A066FF2B01D1FEF72CFE200000F0BA
:10427000A3FC7860002803D0A5666572FEF7EEFD0A
:104280002300A5331878002801D0FEF7E7FD02F0DF
:104290002DFE2300A6331B787649A83499404B089D
:1042A000181803F0B3FF2060FEF7D8FDBA68116854
:1042B000002905D0704B1B683F331B78994203D906
:1042C0006E4B7B60FEF7CAFD53681E785D789C7864
:1042D000D8781A79654B01290FD1190084310E70F5
:1042E000190085310D70190086310C701900873165
:1042F000087088331A70FEF7E5FD190090310E70D2
:10430000190091310D70190092310C701900933120
:1043100008709433EEE7BD68012D0FD1534B9B7AA3
:10432000002B07D1544B1B683F331B789D4201D8AB
:10433000002D08D1524B7B60FEF790FD022DF1D18C
:104340004A4BDB7AECE7494C2100012D19D12800BA
:1043500000F09CFB231DD867A572FB68FF2B01D1E1
:10436000FEF7B0FD200000F027FC7860002817D091
:10437000BA680023012A0DD1221DD367A372FEF76C
:104380006DFD022000F082FB23008C3318600123B6
:10439000E372E2E722008C321360E372FEF75EFD07
:1043A0002300A5331878431E012B01D9FEF756FDD3
:1043B00002F09CFD2300A6331B782E49A8349940B7
:1043C0004B08181803F022FF2060FEF747FD274C2A
:1043D000237D250002930123A4352E782375BB6825
:1043E0002B70FB68FF2B01D1FEF76CFD200000F065
:1043F000E3FB7860002801D1FEF730FD029B2E70B0
:104400002375FEF72BFD0122184B9A71BA689A6446
:1044100000237B60FEF722FD1A4B7B60FEF71EFD3A
:10442000002D01D1FEF737FFB122C0201649D2007E
:104430008B58800503438B500024FEF72CFF002D82
:1044400001D1FEF728FF114B029C19880298104AEF
:104450000C40B300014201D1FEF725FF0A490D4887
:104460005B18995801409950E6E7C046100B0208C6
:104470003E0F1A0140420F0080050208BD0F1A01CD
:104480002D0F1A01FF0F1A0100002640A205020895
:10449000FC050000FFFFFFCFF0B5154D87B02A687F
:1044A00002AC1300BA331B88126A9B009B18DB68AE
:1044B00027001E0001930ECE0EC7336820003B601C
:1044C000FEF79EFC019B07CC07C3852180203B683B
:1044D000490133602B6840031A6ABA335050188878
:1044E0005158800000218018FEF716F907B0F0BD82
:1044F0008005020837B50022384910000B00013250
:10450000486008319D2AFAD1354A00201A60354AA0
:104510009A60354A1A61354A9A61354A1A62354AB3
:104520009A62354A1A63354A9A63354A1A64354A9B
:104530001268110040310978042900D93248986482
:10454000052948D800211965516801240800083060
:1045500098652E48644218662D48802558662D4877
:10456000DC6798662C482D0218672C480918996753
:1045700080231169DB012A48CB1849198025ED00F9
:1045800003605B19446008309942F7D1002185200F
:10459000244B40010433D967136A1B188020400361
:1045A0009860042368460380138F019105331E49E8
:1045B000837002F023FD002800D001BE6B4600226C
:1045C0009B5E002B06DB1F2213401E3A9A4013000D
:1045D000164A136037BD1649B5E7C046A405020860
:1045E000080026400007264004072640080726400A
:1045F0001007264084032640880326408C0326406B
:1046000090032640800502089403264004002640BB
:1046100000FF03F0480526404405264060F00000F6
:10462000240602088C0A02089944001000E100E008
:10463000980326402F4BF7B51C68002C59D02378DF
:10464000002B0FD0A568E668290032002020FEF775
:10465000E5FA290089203200FEF782FB2900932029
:10466000FEF7ACFB6378002B20D0266AA76A3100E6
:104670003A003520FEF7D2FAE36A656A1A0029008B
:104680004A200193FEF7CAFA3A0031008B20FEF768
:1046900067FB29008D20019AFEF762FB310095200F
:1046A000FEF78CFB29009720FEF788FBA378002BF0
:1046B0001FD0266BA76B31003A005F20FEF7AEFAE1
:1046C000656BE46B290022007420FEF7A7FA3A001C
:1046D00031008F20FEF744FB220029009120FEF7D5
:1046E0003FFB31009920FEF769FB29009B20FEF774
:1046F00065FBF7BD040C020800B5032808D8431E6B
:104700000020022B17D8180003F062FD0F161800C6
:104710001223FF33984216D01423FF33984214D04B
:10472000033B98420DD00F4805E088794342584139
:104730000C4B4042184000BD4879F7E70231C87F72
:10474000F4E7C879F2E7087AF0E70131CB7F002B74
:10475000E9D0054B1B68413318780138431E984156
:10476000E6E7C046FE0F1A018005020810B51B4B94
:104770001B683E331B7883422DD905282BD803F0C4
:1047800027FD030C12181E240B7B002B23D00B00DB
:1047900096331888FFF7B0FF10BD4B7B002B1AD063
:1047A0000B009833F5E78B7B002B14D00B009A336A
:1047B000EFE7CB7B002B0ED00B009C33E9E70B7CA3
:1047C000002B08D00B009E33E3E74B7C002B02D07C
:1047D0000B00A033DDE70248DEE7C0468005020893
:1047E000FE0F1A0100B5032806D80138022830D878
:1047F00003F0EEFC151719001223FF3398422AD05C
:104800001423FF33984217D01138FF38431E9841C4
:10481000124B40421840FA23DB01C01800E0886CBC
:1048200000BD886AFCE7E43108680138434258411A
:104830000B4B40421840F0E70A4B1B684133187895
:104840000138431E9841084B4042184080231B0208
:10485000E3E70648E4E780200002E1E7FE82FFFF8D
:104860000024F40080050208FE7FFFFF00127A009A
:1048700002235B4270B51360344B15001B680400C3
:104880001A003E32127882425ED905285CD803F0C5
:104890009FFC031934494F550B7B002B54D04B7AA6
:1048A000002B08D00B007A331B78022B03D08B6EC1
:1048B0002B60200070BD0B0096331888FFF792FF25
:1048C0002860F6E74A7B002A3ED03F331B78002B56
:1048D0000CD08B7A002B09D00B0088331B78022B6D
:1048E00004D00431CB6F2B600024E2E70B00983337
:1048F0001888FFF777FF2860F6E78A7B002A23D025
:104900003F331B78012B0AD9CB7A002B07D00B0041
:1049100094331B78022B02D08C310B68E3E70B0039
:104920009A33E5E7CB7B002B0ED00B009C33DFE7FF
:104930000B7C002B08D00B009E33D9E74B7C002B5F
:1049400002D00B00A033D3E7014CB2E78005020888
:10495000FE0F1A0110B51C4B1B683E331C781B4B15
:1049600013600023844201D8180010BD0528FBD82D
:1049700003F02EFC030C12181E240023087B963132
:104980009842F1D00B8800211160EDE70023487BAD
:1049900098319842F6D1E7E70023887B9A31984214
:1049A000F0D1E1E70023C87B9C319842EAD1DBE7F4
:1049B0000023087C9E319842E4D1D5E70023487C4F
:1049C0009842D1D0A031DDE780050208FE0F1A0120
:1049D0000300A8331B6810B50400002B02D0084860
:1049E000584310BD0300A533187802F07FFA012365
:1049F000A634227893405B081818D040F1E7C046EF
:104A000040420F0010B5040001F02EFF002805D130
:104A10002000034901F0B2FF002800D0014810BD7A
:104A200010270000FD0F1A0170B50400150001F0F9
:104A3000B7FA00280AD12900200001F0E3FA002883
:104A400004D1200001F056FA002800D0004870BDC3
:104A5000FD0F1A01030010B50400963318882100D9
:104A6000FFF7C0FE030000209A1C0DD02200703218
:104A70001188814208D0E06E7334584303F0C6FBBE
:104A80002178013103F0C2FB10BD000070B5002594
:104A90000C00A84221D01B4B1B683F331B7883427C
:104AA0001BD301281BD10B0098331888FFF79AFEFF
:104AB00023002200843385321B78117886342578D0
:104AC000821C1BD000291BD0002D06D0584303F0B8
:104AD0009DFB290003F09AFB0500280070BD022809
:104AE000FBD10B009A331888FFF77CFE23002200CD
:104AF000903391321B7811789234E0E70025ECE78F
:104B00000D00EAE780050208F8B504000F0001294E
:104B100032D10300817A427B0430C66F98338330F0
:104B20001B8805780020814225D0824231D01800B0
:104B30002100FFF757FE184BC018184B984228D891
:104B40006B1E9D41164B6D421D40164BED1823798F
:104B5000002B1AD0AE421CD3134B9E4219D8210011
:104B60003800FFF793FF361A73425E410F4B7042D5
:104B700018400F4BC018F8BD0300C17A827B9A33EE
:104B80008C301B880668C579CCE7AE4201D3094B4F
:104B9000E3E70748EFE7C04600F7C2FF008793034B
:104BA000C863E3FF20BCBE0080F0FA0202F0E5FE1D
:104BB000FE0F1A0180D1F008F0B504008BB0002878
:104BC00001D100F0BEFF0500A5352100287805AA17
:104BD000FFF7C0FE059F002F04D0014FE2E2C04660
:104BE0009F0F1A01022800D193E21223FF3398424B
:104BF00000D1B8E201281DD1C04B1B68002B00D1A9
:104C0000D3E21A78002A00D1CFE25968A26C91420F
:104C100000D0CAE29968E26C914200D0C5E2DA683D
:104C2000236D9A4200D0C0E2230054331B78102B2E
:104C300000D0BAE201F02AFB02281ED06379002BD3
:104C40001BD0AF4AA36A9B18AE4A934201D900F029
:104C50007BFFE36A013B632B01D900F075FFFA2269
:104C6000236B9200013B934201D300F06DFF636B15
:104C7000013B934201D300F067FFA379002B0ED0D4
:104C80002279A36C002A00D191E29F4A934201D974
:104C900000F05DFFE36C002B01D100F058FFA31C76
:104CA000DB7F002B1FD02300E4331B68012B01D9CD
:104CB00000F050FF2300E0331B68944A5B01913BF6
:104CC000FF3B934201D900F045FF2300DC331B6812
:104CD000FB2B01D900F03EFF2300E8331B68032BB8
:104CE00001D900F037FF237B002B0FD0884B1B68C6
:104CF0003E331B78002B09D02300963321001888FF
:104D0000FFF7FAFC002801D000F027FF637B002B9F
:104D10000FD07F4B1B683E331B78012B09D9230032
:104D2000983321001888FFF7E7FC002801D000F035
:104D300017FFA37B002B0FD0754B1B683E331B78EE
:104D4000022B09D923009A3321001888FFF7D4FCDD
:104D5000002801D000F007FFE37B002B0FD06C4B45
:104D60001B683E331B78032B09D923009C33210099
:104D70001888FFF7C1FC002801D000F0F7FE237C63
:104D8000002B0FD0624B1B683E331B78042B09D9D4
:104D900023009E3321001888FFF7AEFC002801D0C5
:104DA00000F0E7FE637C002B0FD0594B1B683E33AD
:104DB0001B78052B09D92300A03321001888FFF7A1
:104DC0009BFC002801D000F0D7FE01F0E1FB002899
:104DD0005FD1637A002B5CD0237B002B01D100F0E4
:104DE000CEFE2300963318882100FFF7FBFC494BC9
:104DF000C018494B984201D900F0C1FE474AA36E42
:104E00009B182279002A00D1D3E1454A934201D967
:104E100000F0B5FEE36E434A013B934201D900F036
:104E2000AEFE230070331B883F4A013B9BB2934286
:104E300001D900F0A4FE230072331B78042B01D9A2
:104E400000F09DFE2300802274331B889200934261
:104E500001D300F094FE230076331B780F2B01D989
:104E600000F08DFE230077331B780F2B01D900F063
:104E700086FE2300802178331B8889018B4201D371
:104E800000F07DFE23007C331B88934201D300F0A9
:104E900076FE1F4E33683F331B78002B13D0A37A66
:104EA000002B10D0012001F09BFC00280BD13368AF
:104EB0003F331B78002B05D001212000FFF724FE93
:104EC000002800D0194F33683F331B78012B00D8DE
:104ED0007FE1E37A002B00D17BE1002F01D000F0CD
:104EE00051FE022001F07CFC002800D163E1237F09
:104EF0000293002B00D070E11AE0C046040C0208B7
:104F000000DC0BFFC0EA210180F0FA02D0100000A3
:104F10008005020818FCFFFF18DDF50500CA91FEA8
:104F200080BA8C01FEFF0300FE1F0000BF0F1A01B4
:104F3000637D002B00D150E63368039340331F7824
:104F4000002F00D149E62D7821002800FFF70EFC44
:104F5000002800D041E62100280004AAFFF7FAFC4F
:104F600088235B00984200D137E61423FF33984230
:104F700000D132E6032800D12FE6049B002B00D09D
:104F80002BE605AA21002800FFF772FCBD4B059A0D
:104F90009A4200D821E6002800D01EE62300A8335C
:104FA0001B68002B00D118E62200B74EB74D7343A3
:104FB000A6321278AB4200D90FE6032A00D90CE6DC
:104FC000A37D002B1AD0012F18D02300AC33210071
:104FD0001878FFF7CBFB002801D000F09FFC2300DE
:104FE000B0331B687343AB4201D900F097FC230038
:104FF000AD331B78032B01D900F090FCE37D002B2F
:105000001AD0022F18D92300B43321001878FFF7E3
:10501000ADFB002801D000F0C5FC2300B8331B68AD
:105020007343AB4201D900F0BDFC2300B5331B78BC
:10503000032B01D900F0B6FC237E002B1AD0032FDE
:1050400018D92300BC3321001878FFF78FFB002804
:1050500001D000F09FFC2300C0331B687343AB42B8
:1050600001D900F097FC2300BD331B78032B01D935
:1050700000F090FC637E002B1AD0042F18D9230077
:10508000C43321001878FFF771FB002801D000F02D
:105090009EFC2300C8331B687343AB4201D900F068
:1050A00096FC2300C5331B78032B01D900F08FFC3D
:1050B000A37E002B1AD0052F18D92300CC33210052
:1050C0001878FFF753FB002801D000F0C1FC230043
:1050D000D0331B685E43AE4201D900F0B9FC230017
:1050E000CD331B78032B01D900F0B2FCE37E002BFB
:1050F00000D08DE0637F002B00D1AAE02300D733DE
:105100001B78002B00D1A0E0012B00D1A9E0604F5B
:1051100048E0604B1B68002B23D05A78002A20D02F
:105120001969A26A91421CD15969E26A914218D167
:105130009969226B914214D1D969626B914210D165
:10514000196AA26B91420CD1596AE26B914208D163
:10515000996A226C914204D1DA6A636C9A4200D156
:1051600068E54D4F1EE04B4B1B68002B19D09A7819
:10517000002A16D022005632D9781278914210D1E6
:10518000196BA26D91420CD1596BE26D914208D11D
:10519000996B226E914204D1DA6B636E9A4200D110
:1051A00048E53E4F38000BB0F0BD3D4FFAE73D4AB1
:1051B0006CE53D4A2AE633683F331B78012B06D95C
:1051C00002212000FFF7A0FC002800D18FE6374F16
:1051D000E8E7002F00D18AE6E4E72300D6331B7806
:1051E000012B09D0032B09D0002B03D1E379002B2D
:1051F00000D09DE62E4FD5E7237AF8E7631CDB7FCE
:10520000002BF7D0336841331B78012BF2D18FE6A6
:105210002300D4331F7821003800FFF7A7FA0028B5
:1052200011D12300D5331E78042E0CD8210038006C
:1052300005AAFFF71DFB002805D1059B1D4AF34079
:10524000934200D856E71C4FACE7237A002B00D1DD
:105250005DE7A37C002B3FD1E37C002B4AD1174FA5
:10526000A0E7029B002B00D151E72300D6331B7827
:10527000012BEAD0032B23D0002B00D047E7E379A2
:10528000E4E7C0463F0D030040420F0080D1F00824
:105290008E0F1A01040C0208580F1A01560F1A013A
:1052A000570F1A0100E1F50500AB8704BE0F1A0184
:1052B000AF0F1A010084D7178F0F1A018C0F1A0134
:1052C000631CDB7F002B00D121E7039B41331B785C
:1052D000012B00D01BE7BCE72000FFF779FB230080
:1052E000A2331978013102F091FFBB4B9842B3D938
:1052F000BA4F57E7637D002BB1D02000FFF768FB62
:10530000A842ACD82600A3363178013102F07EFFE6
:105310002379002B0AD0B24B9842A0D8A37F002B50
:1053200006D1237D002B38D1AE4F3BE7AE4BF3E7E0
:105330002300D8331B88012B09D02BD9AB4A9342C9
:1053400005D00221AA4AFF311A408A4202D1627D69
:10535000002A01D1A74F25E70222FF3202279342FC
:1053600008D0A24AFF19934204D0A34A033F9342B4
:1053700000D107372000FFF72BFB2300DA33197821
:10538000013102F043FF390002F040FF924B984296
:10539000C7D9DFE701279948EFE7E37C002BC3D0AB
:1053A0002000FFF715FBA84200D958E73178E71C29
:1053B000013102F02BFF2300A43302931978251D3D
:1053C000013102F023FF884B9842ADD8962100208E
:1053D00001F0CAFE2378002B28D06378002B0FD071
:1053E000F87F012806D9631DDB7F002B10D102F066
:1053F00007FC0FE002F05EFC0028F4D0804FD1E6FD
:10540000E87F022801D00528EDD102F0B3FCF3E7D4
:1054100002F0C6FB0028F1D102F04CFDA378002B6E
:1054200002D102F035FD01E002F022FD754D2B683E
:1054300041331B78012B09D100F088FE631CDB7F10
:1054400000287BD0002B01D100F08AFE6E4B082291
:105450001968237A0F001740114276D0002B04D12F
:105460007B2001F02DFE00F02DFE237F002B0ED0BF
:105470002300D6331F7800F0F5FC874207D002F0F6
:1054800033FD002800D080E3380000F0D7FC012273
:105490005E4B5F49C858A31CDB7F10427CD05D483F
:1054A0000958114278D0002B01D1FCF793FD00F090
:1054B000EDFE6379022800D0B8E0002B01D100F0A6
:1054C000D3FEA379002B0ED0E06C002808D0230077
:1054D00054331B7808220093216D0023FDF7F8F860
:1054E000A06C00F0AFFEA37C002B04D02300A233FD
:1054F000187800F0E5FCE37C002B02D0307800F057
:10550000BBFC237D002B03D0029B187800F090FB9E
:105510002600122296363388FF32934200D0C1E033
:105520002300A5331978002900D0BBE0012000F04A
:10553000A9FF002800D1A3E0374F33E6002B85D028
:1055400002F0B2FD00F0E6FD80E7002B8DD002F006
:10555000ABFDA06D00280FD0E36D002B0CD03B00FD
:105560003A00216E0097FDF7B3F83B003A00616EF8
:10557000E06D0097FDF7ACF823005633187800284B
:1055800000D0012000F0AEFD244800F077FD002897
:1055900000D16AE7224F05E6002B88D002F084FD97
:1055A0002300E8331968043B186808331B6822009D
:1055B000DBB200932300DC32E0331B681268C9B20F
:1055C000C0B2FCF753FD002800D170E7154B98429C
:1055D00000D16CE7144FE5E50084D7178D0F1A0151
:1055E00040787D018B0F1A0100E1F50501020000F2
:1055F000FFFDFFFF890F1A010103000000127A006E
:105600006F0F1A018005020800002740A0F001007A
:1056100000003C40B4F001004E0F1A0140420F0060
:105620005A0F1A01030016005D0F1A01002B00D15A
:1056300047E702F039FDA06B002810D0E36B002B88
:105640000DD00027216C3B003A000097FDF740F891
:105650003B003A00616CE06B0097FDF739F8636B33
:10566000226BE16AA06A00F01FFE002801D0B24F51
:1056700098E5B24800F0C2FE002800D121E7F6E725
:10568000012100F08DFC00280AD1237B002B12D0D1
:105690000020318800F0F6FE00280CD0A84F81E5EC
:1056A000A84F7FE5230098330120198800F0EAFE17
:1056B0000028EAD040E7A37B002B09D023009A33CF
:1056C0000220198800F0DEFE002801D09E4F69E517
:1056D000E37B002B1AD1237C002B26D1637C002B8B
:1056E00032D100F055FF00283DD001F07DFB0700CE
:1056F0002000FFF7AFF9637A002B01D0874235D045
:1057000000F058FF00282ED0904F4BE52B683E3319
:105710001B78032BDFD923009C330320198800F06A
:10572000B1FE0028D7D08A4F3CE52B683E331B786A
:10573000042BD3D923009E330420198800F0A2FE45
:105740000028CBD0834F2DE52B683E331B78052BEB
:10575000C7D92300A0330520198800F093FE002844
:10576000BFD07D4F1EE5637A002B20D000F010FFE4
:1057700000281CD102F098FC2300E16E78331A88CF
:1057800002331B780591216F05A80691616F07917F
:105790008373230082817C331B88038200F02EFFF9
:1057A0000028B1D16D4800F0B7FF0028ACD123002C
:1057B000A53302930020197800F0F2FB002800D0F6
:1057C0006EE72300A633197800F01CFC071E00D0FA
:1057D00066E712223388FF3293425DD02B683F3355
:1057E0001B78002B3FD0012000F0FAFF002864D185
:1057F000A37A002B14D0012000F0F2FF00280FD173
:10580000230088331A78803BDB6F05AE0593327135
:1058100002F04AFC31000120FFF7F4F8002860D1C3
:105820002B683F331B78012B1DD9022000F0D8FFD5
:10583000002858D1E37A002B15D0022000F0D0FFC9
:10584000002810D123002200943390321B78126874
:1058500005AE0592337102F027FC31000220FFF7FC
:10586000D1F8002853D1012000F066FBA37D002869
:1058700056D0002B4DD0022000F05EFBE37D0028C7
:1058800074D1002B74D02300B5331A78013B1978FA
:105890000220FFF7C9F883E0029B1B78002B9DD103
:1058A000637B002B00D147E6230098330120198841
:1058B00000F0E8FD002891D03EE6012001F0CCFA8E
:1058C000210006000120FFF7E1F8A37A002B01D0A8
:1058D000864290D002F0E8FB012000F095FF0028FE
:1058E00086D01F4F5EE4022001F0B6FA21000600C8
:1058F0000220FFF7CBF8E37A002B01D086429CD040
:1059000002F0D2FB022000F07FFF002892D0154F5A
:1059100048E4012000F022FB0028ACD0124F41E403
:10592000002BA8D02300AD331A78013B1978012051
:10593000FFF77AF8F0E7C0465F0F1A01B80B0000D6
:105940004F0F1A010F0F1A014D0F1A013F0F1A01C5
:105950004C0F1A014B0F1A014A0F1A01400D030098
:105960002F0F1A012E0F1A019E0F1A01002B14D0AF
:105970002B6840331B78032B17D9032000F0DCFA87
:10598000237E002826D0002B0FD1032000F0E6FA5A
:1059900000280AD07E4FFFF705FC022000F0DEFA57
:1059A0000028E5D07B4FFFF7FDFB2B6840331B78C9
:1059B000042B1AD9042000F0BFFA637E00282FD0F0
:1059C000002B12D1042000F0C9FA00280DD0724F2C
:1059D000FFF7E8FB002BE8D02300BD331A78013B2A
:1059E00019780320FFF720F8D2E72B6840331B78A3
:1059F000052B20D800F006FAA37F002836D1002B13
:105A000038D02300D8331E889D7800F005FA300086
:105A100000F0B2F9280000F0C9F900F0DFF929E040
:105A2000002BE2D02300C5331A78013B19780420FB
:105A3000FEF7FAFFC9E7052000F07EFAA37E0028F2
:105A400009D0002BD6D1052000F088FA0028D1D04B
:105A5000524FFFF7A7FB002BCCD02300CD331A7891
:105A6000013B19780520FEF7DFFFEFE7002B01D19E
:105A700000F0D2F900F04AF9E37E002819D0002B9B
:105A800001D100F04DF9637F002B04D02300D73300
:105A9000187800F059F92300414E55331D783378BA
:105AA000AB421BD002F020FA002813D03D4FFFF785
:105AB00079FB002BE7D02300D4331E785D7800F00B
:105AC0002FF9300000F0DCF8280000F0F3F800F0C7
:105AD0000BF9D8E7280000F0A1FB357000F074FB4B
:105AE000E379002820D0002B0ED1A32001F0E8FAA2
:105AF00000F06AFB002807D002F0F6F90028D5D1A3
:105B000000F06CFB0028D1D12378002B08D0637DF6
:105B1000002B05D02300A8332079196801F024FB5D
:105B200002F0C2FAFFF73EFB002BEDD000F04CFB79
:105B30000028E9D102F0D8F90028B7D100F030FBF5
:105B4000E2E7194FFFF72EFB184FFFF72BFB184F1B
:105B5000FFF728FB174FFFF725FB174FFFF722FB37
:105B6000164FFFF71FFB164FFFF71CFB154FFFF7F4
:105B700019FB154FFFF716FB144FFFF713FB144FDC
:105B8000FFF710FB134FFFF70DFB134FFFF70AFB57
:105B90009C0F1A019D0F1A019B0F1A019A0F1A01EF
:105BA000080C02085C0F1A01FE0F1A01EF0F1A0110
:105BB000EE0F1A01ED0F1A01DF0F1A01DE0F1A01A5
:105BC000DD0F1A01DC0F1A01DB0F1A01DA0F1A01BF
:105BD000CF0F1A01BF0F1A011F0F1A01F0220B0479
:105BE000120310B513400C000F2214402343084C3D
:105BF00080022468246900198024E40103510059BB
:105C00001040401A431E9841024B4042184010BDBC
:105C1000800502080300C200044B10301B6880029C
:105C20001B69C0580F2318407047C0468005020802
:105C300010B50200040000232B21072003F034FFDD
:105C4000064B24021B68190088311A680B68044946
:105C5000D21813680B401C43146010BD8005020865
:105C6000FF00FFFF054B1B681A0088321B68126893
:105C70009B181868000AC0B27047C0468005020829
:105C800010B50200040000231F21072003F00CFFC1
:105C9000A022F0200549D200000124028B580440C4
:105CA000034803401C438C5010BDC04600002640F2
:105CB000FFF0FFFF10B502000400002320210720A1
:105CC00003F0F2FEA022E0200549D200C001240327
:105CD0008B580440034803401C438C5010BDC04601
:105CE00000002640FF8FFFFF00230122212110B575
:105CF000072003F0D9FEA02280230349D200885850
:105D00001B0203438B5010BD00002640A023034A12
:105D1000DB00D0580004C00F7047C046000026408A
:105D2000002322211A0010B5072003F0BDFEA02297
:105D30000349D2008B58034803408B5010BDC04626
:105D400000002640FF7FFFFF10B502000400002383
:105D50002321072003F0A8FEC021054A8900240260
:105D600013680C4003490B401C43146010BDC0462F
:105D700000002740FFFCFFFF10B5040002000023D5
:105D80001B21072003F090FE0449054A05488B5863
:105D90000340054804401C438C5010BD00002640C1
:105DA00004050000FEFCFFFF0103000010B5040025
:105DB000020000231C21072003F076FE0449054A57
:105DC00005488B58240403401C438C5010BDC0462A
:105DD0000000264004050000FFFF00FF0023012211
:105DE0001D2110B5072003F05FFE80230349044AFC
:105DF0001B06885803438B5010BDC0460000264048
:105E000004050000024A034BD058C00F7047C0463B
:105E1000000026400405000000231E211A0010B5D2
:105E2000072003F041FE0349034A8B585B005B08DF
:105E30008B5010BD000026400405000010B5020084
:105E4000040000231A21072003F02EFEA0220320C5
:105E50000349D2008B58044083431C438C5010BD2F
:105E600000002640A023034ADB00D058032318403B
:105E70007047C0460000264010B502000400002311
:105E80001921072003F010FE064B24061B681A0098
:105E900088321B6812689B1818680002000A2043A9
:105EA000186010BD80050208044B1B681A00883278
:105EB0001B6812689B181868000E7047800502085E
:105EC00010B50200040000231821072003F0ECFDA8
:105ED000064B24021B6819008C311A680B680449B0
